{
	"contracts/HeapOrderBook.sol": {
		"MaxHeapOrderBook": {
			"abi": [
				{
					"inputs": [],
					"name": "MaxHeap",
					"outputs": [],
					"stateMutability": "nonpayable",
					"type": "function"
				},
				{
					"inputs": [
						{
							"internalType": "uint256",
							"name": "_price",
							"type": "uint256"
						},
						{
							"internalType": "uint256",
							"name": "_amount",
							"type": "uint256"
						}
					],
					"name": "fillOrder",
					"outputs": [],
					"stateMutability": "nonpayable",
					"type": "function"
				},
				{
					"inputs": [],
					"name": "findMax",
					"outputs": [
						{
							"internalType": "uint256",
							"name": "",
							"type": "uint256"
						}
					],
					"stateMutability": "nonpayable",
					"type": "function"
				},
				{
					"inputs": [],
					"name": "findMin",
					"outputs": [
						{
							"internalType": "uint256",
							"name": "",
							"type": "uint256"
						}
					],
					"stateMutability": "nonpayable",
					"type": "function"
				},
				{
					"inputs": [
						{
							"internalType": "uint256",
							"name": "",
							"type": "uint256"
						}
					],
					"name": "heap",
					"outputs": [
						{
							"internalType": "uint256",
							"name": "price",
							"type": "uint256"
						},
						{
							"internalType": "uint256",
							"name": "amount",
							"type": "uint256"
						}
					],
					"stateMutability": "view",
					"type": "function"
				},
				{
					"inputs": [],
					"name": "popMax",
					"outputs": [],
					"stateMutability": "nonpayable",
					"type": "function"
				},
				{
					"inputs": [],
					"name": "sortPrice",
					"outputs": [],
					"stateMutability": "nonpayable",
					"type": "function"
				}
			],
			"devdoc": {
				"kind": "dev",
				"methods": {},
				"version": 1
			},
			"evm": {
				"assembly": "    /* \"contracts/HeapOrderBook.sol\":57:1672  contract MaxHeapOrderBook {... */\n  mstore(0x40, 0x80)\n  callvalue\n  dup1\n  iszero\n  tag_1\n  jumpi\n  0x00\n  dup1\n  revert\ntag_1:\n  pop\n  dataSize(sub_0)\n  dup1\n  dataOffset(sub_0)\n  0x00\n  codecopy\n  0x00\n  return\nstop\n\nsub_0: assembly {\n        /* \"contracts/HeapOrderBook.sol\":57:1672  contract MaxHeapOrderBook {... */\n      mstore(0x40, 0x80)\n      callvalue\n      dup1\n      iszero\n      tag_1\n      jumpi\n      0x00\n      dup1\n      revert\n    tag_1:\n      pop\n      jumpi(tag_2, lt(calldatasize, 0x04))\n      shr(0xe0, calldataload(0x00))\n      dup1\n      0x737385ac\n      gt\n      tag_10\n      jumpi\n      dup1\n      0x737385ac\n      eq\n      tag_6\n      jumpi\n      dup1\n      0xaac12b4b\n      eq\n      tag_7\n      jumpi\n      dup1\n      0xb13c9ca9\n      eq\n      tag_8\n      jumpi\n      dup1\n      0xc37dfc5b\n      eq\n      tag_9\n      jumpi\n      jump(tag_2)\n    tag_10:\n      dup1\n      0x02a08baf\n      eq\n      tag_3\n      jumpi\n      dup1\n      0x1c01f292\n      eq\n      tag_4\n      jumpi\n      dup1\n      0x5d3b69b6\n      eq\n      tag_5\n      jumpi\n    tag_2:\n      0x00\n      dup1\n      revert\n        /* \"contracts/HeapOrderBook.sol\":872:946  function popMax() external{... */\n    tag_3:\n      tag_11\n      tag_12\n      jump\t// in\n    tag_11:\n      stop\n        /* \"contracts/HeapOrderBook.sol\":168:191  Orderbook[] public heap */\n    tag_4:\n      tag_13\n      0x04\n      dup1\n      calldatasize\n      sub\n      dup2\n      add\n      swap1\n      tag_14\n      swap2\n      swap1\n      tag_15\n      jump\t// in\n    tag_14:\n      tag_16\n      jump\t// in\n    tag_13:\n      mload(0x40)\n      tag_17\n      swap3\n      swap2\n      swap1\n      tag_18\n      jump\t// in\n    tag_17:\n      mload(0x40)\n      dup1\n      swap2\n      sub\n      swap1\n      return\n        /* \"contracts/HeapOrderBook.sol\":650:750  function findMin() external returns(uint){... */\n    tag_5:\n      tag_19\n      tag_20\n      jump\t// in\n    tag_19:\n      mload(0x40)\n      tag_21\n      swap2\n      swap1\n      tag_22\n      jump\t// in\n    tag_21:\n      mload(0x40)\n      dup1\n      swap2\n      sub\n      swap1\n      return\n        /* \"contracts/HeapOrderBook.sol\":756:867  function findMax() external returns(uint){... */\n    tag_6:\n      tag_23\n      tag_24\n      jump\t// in\n    tag_23:\n      mload(0x40)\n      tag_25\n      swap2\n      swap1\n      tag_22\n      jump\t// in\n    tag_25:\n      mload(0x40)\n      dup1\n      swap2\n      sub\n      swap1\n      return\n        /* \"contracts/HeapOrderBook.sol\":363:644  function sortPrice() public{... */\n    tag_7:\n      tag_26\n      tag_27\n      jump\t// in\n    tag_26:\n      stop\n        /* \"contracts/HeapOrderBook.sol\":952:1118  function MaxHeap() public{... */\n    tag_8:\n      tag_28\n      tag_29\n      jump\t// in\n    tag_28:\n      stop\n        /* \"contracts/HeapOrderBook.sol\":198:357  function fillOrder(uint _price,uint _amount) external{... */\n    tag_9:\n      tag_30\n      0x04\n      dup1\n      calldatasize\n      sub\n      dup2\n      add\n      swap1\n      tag_31\n      swap2\n      swap1\n      tag_32\n      jump\t// in\n    tag_31:\n      tag_33\n      jump\t// in\n    tag_30:\n      stop\n        /* \"contracts/HeapOrderBook.sol\":872:946  function popMax() external{... */\n    tag_12:\n        /* \"contracts/HeapOrderBook.sol\":908:919  sortPrice() */\n      tag_35\n        /* \"contracts/HeapOrderBook.sol\":908:917  sortPrice */\n      tag_27\n        /* \"contracts/HeapOrderBook.sol\":908:919  sortPrice() */\n      jump\t// in\n    tag_35:\n        /* \"contracts/HeapOrderBook.sol\":929:933  heap */\n      0x00\n        /* \"contracts/HeapOrderBook.sol\":929:939  heap.pop() */\n      dup1\n      sload\n      dup1\n      tag_36\n      jumpi\n      tag_37\n      tag_38\n      jump\t// in\n    tag_37:\n    tag_36:\n      0x01\n      swap1\n      sub\n      dup2\n      dup2\n      swap1\n      0x00\n      mstore\n      keccak256(0x00, 0x20)\n      swap1\n      0x02\n      mul\n      add\n      0x00\n      dup1\n      dup3\n      add\n      0x00\n      swap1\n      sstore\n      0x01\n      dup3\n      add\n      0x00\n      swap1\n      sstore\n      pop\n      pop\n      swap1\n      sstore\n        /* \"contracts/HeapOrderBook.sol\":872:946  function popMax() external{... */\n      jump\t// out\n        /* \"contracts/HeapOrderBook.sol\":168:191  Orderbook[] public heap */\n    tag_16:\n      0x00\n      dup2\n      dup2\n      sload\n      dup2\n      lt\n      tag_40\n      jumpi\n      0x00\n      dup1\n      revert\n    tag_40:\n      swap1\n      0x00\n      mstore\n      keccak256(0x00, 0x20)\n      swap1\n      0x02\n      mul\n      add\n      0x00\n      swap2\n      pop\n      swap1\n      pop\n      dup1\n      0x00\n      add\n      sload\n      swap1\n      dup1\n      0x01\n      add\n      sload\n      swap1\n      pop\n      dup3\n      jump\t// out\n        /* \"contracts/HeapOrderBook.sol\":650:750  function findMin() external returns(uint){... */\n    tag_20:\n        /* \"contracts/HeapOrderBook.sol\":686:690  uint */\n      0x00\n        /* \"contracts/HeapOrderBook.sol\":701:712  sortPrice() */\n      tag_43\n        /* \"contracts/HeapOrderBook.sol\":701:710  sortPrice */\n      tag_27\n        /* \"contracts/HeapOrderBook.sol\":701:712  sortPrice() */\n      jump\t// in\n    tag_43:\n        /* \"contracts/HeapOrderBook.sol\":730:734  heap */\n      0x00\n        /* \"contracts/HeapOrderBook.sol\":735:736  0 */\n      dup1\n        /* \"contracts/HeapOrderBook.sol\":730:737  heap[0] */\n      dup2\n      sload\n      dup2\n      lt\n      tag_44\n      jumpi\n      tag_45\n      tag_46\n      jump\t// in\n    tag_45:\n    tag_44:\n      swap1\n      0x00\n      mstore\n      keccak256(0x00, 0x20)\n      swap1\n      0x02\n      mul\n      add\n        /* \"contracts/HeapOrderBook.sol\":730:743  heap[0].price */\n      0x00\n      add\n      sload\n        /* \"contracts/HeapOrderBook.sol\":723:743  return heap[0].price */\n      swap1\n      pop\n        /* \"contracts/HeapOrderBook.sol\":650:750  function findMin() external returns(uint){... */\n      swap1\n      jump\t// out\n        /* \"contracts/HeapOrderBook.sol\":756:867  function findMax() external returns(uint){... */\n    tag_24:\n        /* \"contracts/HeapOrderBook.sol\":792:796  uint */\n      0x00\n        /* \"contracts/HeapOrderBook.sol\":807:818  sortPrice() */\n      tag_49\n        /* \"contracts/HeapOrderBook.sol\":807:816  sortPrice */\n      tag_27\n        /* \"contracts/HeapOrderBook.sol\":807:818  sortPrice() */\n      jump\t// in\n    tag_49:\n        /* \"contracts/HeapOrderBook.sol\":835:839  heap */\n      0x00\n        /* \"contracts/HeapOrderBook.sol\":852:853  1 */\n      0x01\n        /* \"contracts/HeapOrderBook.sol\":840:844  heap */\n      0x00\n        /* \"contracts/HeapOrderBook.sol\":840:851  heap.length */\n      dup1\n      sload\n      swap1\n      pop\n        /* \"contracts/HeapOrderBook.sol\":840:853  heap.length-1 */\n      tag_50\n      swap2\n      swap1\n      tag_51\n      jump\t// in\n    tag_50:\n        /* \"contracts/HeapOrderBook.sol\":835:854  heap[heap.length-1] */\n      dup2\n      sload\n      dup2\n      lt\n      tag_52\n      jumpi\n      tag_53\n      tag_46\n      jump\t// in\n    tag_53:\n    tag_52:\n      swap1\n      0x00\n      mstore\n      keccak256(0x00, 0x20)\n      swap1\n      0x02\n      mul\n      add\n        /* \"contracts/HeapOrderBook.sol\":835:860  heap[heap.length-1].price */\n      0x00\n      add\n      sload\n        /* \"contracts/HeapOrderBook.sol\":828:860  return heap[heap.length-1].price */\n      swap1\n      pop\n        /* \"contracts/HeapOrderBook.sol\":756:867  function findMax() external returns(uint){... */\n      swap1\n      jump\t// out\n        /* \"contracts/HeapOrderBook.sol\":363:644  function sortPrice() public{... */\n    tag_27:\n        /* \"contracts/HeapOrderBook.sol\":400:409  MaxHeap() */\n      tag_56\n        /* \"contracts/HeapOrderBook.sol\":400:407  MaxHeap */\n      tag_29\n        /* \"contracts/HeapOrderBook.sol\":400:409  MaxHeap() */\n      jump\t// in\n    tag_56:\n        /* \"contracts/HeapOrderBook.sol\":419:432  uint heapSize */\n      0x00\n        /* \"contracts/HeapOrderBook.sol\":435:439  heap */\n      dup1\n        /* \"contracts/HeapOrderBook.sol\":435:446  heap.length */\n      dup1\n      sload\n      swap1\n      pop\n        /* \"contracts/HeapOrderBook.sol\":419:446  uint heapSize = heap.length */\n      swap1\n      pop\n        /* \"contracts/HeapOrderBook.sol\":460:466  uint i */\n      0x00\n        /* \"contracts/HeapOrderBook.sol\":478:479  1 */\n      0x01\n        /* \"contracts/HeapOrderBook.sol\":469:477  heapSize */\n      dup3\n        /* \"contracts/HeapOrderBook.sol\":469:479  heapSize-1 */\n      tag_60\n      swap2\n      swap1\n      tag_51\n      jump\t// in\n    tag_60:\n        /* \"contracts/HeapOrderBook.sol\":460:479  uint i = heapSize-1 */\n      swap1\n      pop\n        /* \"contracts/HeapOrderBook.sol\":456:638  for(uint i = heapSize-1;i>0;i--){... */\n    tag_57:\n        /* \"contracts/HeapOrderBook.sol\":482:483  0 */\n      0x00\n        /* \"contracts/HeapOrderBook.sol\":480:481  i */\n      dup2\n        /* \"contracts/HeapOrderBook.sol\":480:483  i>0 */\n      gt\n        /* \"contracts/HeapOrderBook.sol\":456:638  for(uint i = heapSize-1;i>0;i--){... */\n      iszero\n      tag_58\n      jumpi\n        /* \"contracts/HeapOrderBook.sol\":537:541  heap */\n      0x00\n        /* \"contracts/HeapOrderBook.sol\":542:543  i */\n      dup2\n        /* \"contracts/HeapOrderBook.sol\":537:544  heap[i] */\n      dup2\n      sload\n      dup2\n      lt\n      tag_61\n      jumpi\n      tag_62\n      tag_46\n      jump\t// in\n    tag_62:\n    tag_61:\n      swap1\n      0x00\n      mstore\n      keccak256(0x00, 0x20)\n      swap1\n      0x02\n      mul\n      add\n        /* \"contracts/HeapOrderBook.sol\":537:550  heap[i].price */\n      0x00\n      add\n      sload\n        /* \"contracts/HeapOrderBook.sol\":552:556  heap */\n      0x00\n        /* \"contracts/HeapOrderBook.sol\":557:558  0 */\n      dup1\n        /* \"contracts/HeapOrderBook.sol\":552:559  heap[0] */\n      dup2\n      sload\n      dup2\n      lt\n      tag_64\n      jumpi\n      tag_65\n      tag_46\n      jump\t// in\n    tag_65:\n    tag_64:\n      swap1\n      0x00\n      mstore\n      keccak256(0x00, 0x20)\n      swap1\n      0x02\n      mul\n      add\n        /* \"contracts/HeapOrderBook.sol\":552:565  heap[0].price */\n      0x00\n      add\n      sload\n        /* \"contracts/HeapOrderBook.sol\":504:508  heap */\n      0x00\n        /* \"contracts/HeapOrderBook.sol\":509:510  0 */\n      dup1\n        /* \"contracts/HeapOrderBook.sol\":504:511  heap[0] */\n      dup2\n      sload\n      dup2\n      lt\n      tag_67\n      jumpi\n      tag_68\n      tag_46\n      jump\t// in\n    tag_68:\n    tag_67:\n      swap1\n      0x00\n      mstore\n      keccak256(0x00, 0x20)\n      swap1\n      0x02\n      mul\n      add\n        /* \"contracts/HeapOrderBook.sol\":504:517  heap[0].price */\n      0x00\n      add\n      0x00\n        /* \"contracts/HeapOrderBook.sol\":519:523  heap */\n      dup1\n        /* \"contracts/HeapOrderBook.sol\":524:525  i */\n      dup6\n        /* \"contracts/HeapOrderBook.sol\":519:526  heap[i] */\n      dup2\n      sload\n      dup2\n      lt\n      tag_70\n      jumpi\n      tag_71\n      tag_46\n      jump\t// in\n    tag_71:\n    tag_70:\n      swap1\n      0x00\n      mstore\n      keccak256(0x00, 0x20)\n      swap1\n      0x02\n      mul\n      add\n        /* \"contracts/HeapOrderBook.sol\":519:532  heap[i].price */\n      0x00\n      add\n      0x00\n        /* \"contracts/HeapOrderBook.sol\":503:566  (heap[0].price, heap[i].price) = (heap[i].price, heap[0].price) */\n      dup5\n      swap2\n      swap1\n      pop\n      sstore\n      dup4\n      swap2\n      swap1\n      pop\n      sstore\n      pop\n      pop\n        /* \"contracts/HeapOrderBook.sol\":580:590  heapSize-- */\n      dup2\n      dup1\n      tag_73\n      swap1\n      tag_74\n      jump\t// in\n    tag_73:\n      swap3\n      pop\n      pop\n        /* \"contracts/HeapOrderBook.sol\":604:627  maxHeapify(0, heapSize) */\n      tag_75\n        /* \"contracts/HeapOrderBook.sol\":615:616  0 */\n      0x00\n        /* \"contracts/HeapOrderBook.sol\":618:626  heapSize */\n      dup4\n        /* \"contracts/HeapOrderBook.sol\":604:614  maxHeapify */\n      tag_76\n        /* \"contracts/HeapOrderBook.sol\":604:627  maxHeapify(0, heapSize) */\n      jump\t// in\n    tag_75:\n        /* \"contracts/HeapOrderBook.sol\":484:487  i-- */\n      dup1\n      dup1\n      tag_77\n      swap1\n      tag_74\n      jump\t// in\n    tag_77:\n      swap2\n      pop\n      pop\n        /* \"contracts/HeapOrderBook.sol\":456:638  for(uint i = heapSize-1;i>0;i--){... */\n      jump(tag_57)\n    tag_58:\n      pop\n        /* \"contracts/HeapOrderBook.sol\":390:644  {... */\n      pop\n        /* \"contracts/HeapOrderBook.sol\":363:644  function sortPrice() public{... */\n      jump\t// out\n        /* \"contracts/HeapOrderBook.sol\":952:1118  function MaxHeap() public{... */\n    tag_29:\n        /* \"contracts/HeapOrderBook.sol\":991:997  uint i */\n      0x00\n        /* \"contracts/HeapOrderBook.sol\":1016:1017  1 */\n      0x01\n        /* \"contracts/HeapOrderBook.sol\":1013:1014  2 */\n      0x02\n        /* \"contracts/HeapOrderBook.sol\":1001:1005  heap */\n      0x00\n        /* \"contracts/HeapOrderBook.sol\":1001:1012  heap.length */\n      dup1\n      sload\n      swap1\n      pop\n        /* \"contracts/HeapOrderBook.sol\":1001:1014  heap.length/2 */\n      tag_82\n      swap2\n      swap1\n      tag_83\n      jump\t// in\n    tag_82:\n        /* \"contracts/HeapOrderBook.sol\":1000:1017  (heap.length/2)-1 */\n      tag_84\n      swap2\n      swap1\n      tag_51\n      jump\t// in\n    tag_84:\n        /* \"contracts/HeapOrderBook.sol\":991:1017  uint i = (heap.length/2)-1 */\n      swap1\n      pop\n        /* \"contracts/HeapOrderBook.sol\":987:1077  for(uint i = (heap.length/2)-1; i>0;i--){... */\n    tag_79:\n        /* \"contracts/HeapOrderBook.sol\":1021:1022  0 */\n      0x00\n        /* \"contracts/HeapOrderBook.sol\":1019:1020  i */\n      dup2\n        /* \"contracts/HeapOrderBook.sol\":1019:1022  i>0 */\n      gt\n        /* \"contracts/HeapOrderBook.sol\":987:1077  for(uint i = (heap.length/2)-1; i>0;i--){... */\n      iszero\n      tag_80\n      jumpi\n        /* \"contracts/HeapOrderBook.sol\":1040:1066  maxHeapify(i, heap.length) */\n      tag_85\n        /* \"contracts/HeapOrderBook.sol\":1051:1052  i */\n      dup2\n        /* \"contracts/HeapOrderBook.sol\":1054:1058  heap */\n      0x00\n        /* \"contracts/HeapOrderBook.sol\":1054:1065  heap.length */\n      dup1\n      sload\n      swap1\n      pop\n        /* \"contracts/HeapOrderBook.sol\":1040:1050  maxHeapify */\n      tag_76\n        /* \"contracts/HeapOrderBook.sol\":1040:1066  maxHeapify(i, heap.length) */\n      jump\t// in\n    tag_85:\n        /* \"contracts/HeapOrderBook.sol\":1023:1026  i-- */\n      dup1\n      dup1\n      tag_86\n      swap1\n      tag_74\n      jump\t// in\n    tag_86:\n      swap2\n      pop\n      pop\n        /* \"contracts/HeapOrderBook.sol\":987:1077  for(uint i = (heap.length/2)-1; i>0;i--){... */\n      jump(tag_79)\n    tag_80:\n      pop\n        /* \"contracts/HeapOrderBook.sol\":1086:1111  maxHeapify(0,heap.length) */\n      tag_87\n        /* \"contracts/HeapOrderBook.sol\":1097:1098  0 */\n      0x00\n        /* \"contracts/HeapOrderBook.sol\":1099:1103  heap */\n      dup1\n        /* \"contracts/HeapOrderBook.sol\":1099:1110  heap.length */\n      dup1\n      sload\n      swap1\n      pop\n        /* \"contracts/HeapOrderBook.sol\":1086:1096  maxHeapify */\n      tag_76\n        /* \"contracts/HeapOrderBook.sol\":1086:1111  maxHeapify(0,heap.length) */\n      jump\t// in\n    tag_87:\n        /* \"contracts/HeapOrderBook.sol\":952:1118  function MaxHeap() public{... */\n      jump\t// out\n        /* \"contracts/HeapOrderBook.sol\":198:357  function fillOrder(uint _price,uint _amount) external{... */\n    tag_33:\n        /* \"contracts/HeapOrderBook.sol\":262:287  Orderbook memory newOrder */\n      0x00\n        /* \"contracts/HeapOrderBook.sol\":290:315  Orderbook(_price,_amount) */\n      mload(0x40)\n      dup1\n      0x40\n      add\n      0x40\n      mstore\n      dup1\n        /* \"contracts/HeapOrderBook.sol\":300:306  _price */\n      dup5\n        /* \"contracts/HeapOrderBook.sol\":290:315  Orderbook(_price,_amount) */\n      dup2\n      mstore\n      0x20\n      add\n        /* \"contracts/HeapOrderBook.sol\":307:314  _amount */\n      dup4\n        /* \"contracts/HeapOrderBook.sol\":290:315  Orderbook(_price,_amount) */\n      dup2\n      mstore\n      pop\n        /* \"contracts/HeapOrderBook.sol\":262:315  Orderbook memory newOrder = Orderbook(_price,_amount) */\n      swap1\n      pop\n        /* \"contracts/HeapOrderBook.sol\":325:329  heap */\n      0x00\n        /* \"contracts/HeapOrderBook.sol\":335:343  newOrder */\n      dup2\n        /* \"contracts/HeapOrderBook.sol\":325:344  heap.push(newOrder) */\n      swap1\n      dup1\n      0x01\n      dup2\n      sload\n      add\n      dup1\n      dup3\n      sstore\n      dup1\n      swap2\n      pop\n      pop\n      0x01\n      swap1\n      sub\n      swap1\n      0x00\n      mstore\n      keccak256(0x00, 0x20)\n      swap1\n      0x02\n      mul\n      add\n      0x00\n      swap1\n      swap2\n      swap1\n      swap2\n      swap1\n      swap2\n      pop\n      0x00\n      dup3\n      add\n      mload\n      dup2\n      0x00\n      add\n      sstore\n      0x20\n      dup3\n      add\n      mload\n      dup2\n      0x01\n      add\n      sstore\n      pop\n      pop\n        /* \"contracts/HeapOrderBook.sol\":251:357  {... */\n      pop\n        /* \"contracts/HeapOrderBook.sol\":198:357  function fillOrder(uint _price,uint _amount) external{... */\n      pop\n      pop\n      jump\t// out\n        /* \"contracts/HeapOrderBook.sol\":1125:1670  function maxHeapify(uint i, uint heapSize) internal {... */\n    tag_76:\n        /* \"contracts/HeapOrderBook.sol\":1187:1199  uint largest */\n      0x00\n        /* \"contracts/HeapOrderBook.sol\":1202:1203  i */\n      dup3\n        /* \"contracts/HeapOrderBook.sol\":1187:1203  uint largest = i */\n      swap1\n      pop\n        /* \"contracts/HeapOrderBook.sol\":1214:1223  uint left */\n      0x00\n        /* \"contracts/HeapOrderBook.sol\":1234:1235  1 */\n      0x01\n        /* \"contracts/HeapOrderBook.sol\":1230:1231  i */\n      dup5\n        /* \"contracts/HeapOrderBook.sol\":1226:1227  2 */\n      0x02\n        /* \"contracts/HeapOrderBook.sol\":1226:1231  2 * i */\n      tag_91\n      swap2\n      swap1\n      tag_92\n      jump\t// in\n    tag_91:\n        /* \"contracts/HeapOrderBook.sol\":1226:1235  2 * i + 1 */\n      tag_93\n      swap2\n      swap1\n      tag_94\n      jump\t// in\n    tag_93:\n        /* \"contracts/HeapOrderBook.sol\":1214:1235  uint left = 2 * i + 1 */\n      swap1\n      pop\n        /* \"contracts/HeapOrderBook.sol\":1246:1256  uint right */\n      0x00\n        /* \"contracts/HeapOrderBook.sol\":1267:1268  2 */\n      0x02\n        /* \"contracts/HeapOrderBook.sol\":1263:1264  i */\n      dup6\n        /* \"contracts/HeapOrderBook.sol\":1259:1260  2 */\n      0x02\n        /* \"contracts/HeapOrderBook.sol\":1259:1264  2 * i */\n      tag_95\n      swap2\n      swap1\n      tag_92\n      jump\t// in\n    tag_95:\n        /* \"contracts/HeapOrderBook.sol\":1259:1268  2 * i + 2 */\n      tag_96\n      swap2\n      swap1\n      tag_94\n      jump\t// in\n    tag_96:\n        /* \"contracts/HeapOrderBook.sol\":1246:1268  uint right = 2 * i + 2 */\n      swap1\n      pop\n        /* \"contracts/HeapOrderBook.sol\":1290:1298  heapSize */\n      dup4\n        /* \"contracts/HeapOrderBook.sol\":1283:1287  left */\n      dup3\n        /* \"contracts/HeapOrderBook.sol\":1283:1298  left < heapSize */\n      lt\n        /* \"contracts/HeapOrderBook.sol\":1283:1340  left < heapSize && heap[left].price > heap[largest].price */\n      dup1\n      iszero\n      tag_97\n      jumpi\n      pop\n        /* \"contracts/HeapOrderBook.sol\":1321:1325  heap */\n      0x00\n        /* \"contracts/HeapOrderBook.sol\":1326:1333  largest */\n      dup4\n        /* \"contracts/HeapOrderBook.sol\":1321:1334  heap[largest] */\n      dup2\n      sload\n      dup2\n      lt\n      tag_98\n      jumpi\n      tag_99\n      tag_46\n      jump\t// in\n    tag_99:\n    tag_98:\n      swap1\n      0x00\n      mstore\n      keccak256(0x00, 0x20)\n      swap1\n      0x02\n      mul\n      add\n        /* \"contracts/HeapOrderBook.sol\":1321:1340  heap[largest].price */\n      0x00\n      add\n      sload\n        /* \"contracts/HeapOrderBook.sol\":1302:1306  heap */\n      0x00\n        /* \"contracts/HeapOrderBook.sol\":1307:1311  left */\n      dup4\n        /* \"contracts/HeapOrderBook.sol\":1302:1312  heap[left] */\n      dup2\n      sload\n      dup2\n      lt\n      tag_101\n      jumpi\n      tag_102\n      tag_46\n      jump\t// in\n    tag_102:\n    tag_101:\n      swap1\n      0x00\n      mstore\n      keccak256(0x00, 0x20)\n      swap1\n      0x02\n      mul\n      add\n        /* \"contracts/HeapOrderBook.sol\":1302:1318  heap[left].price */\n      0x00\n      add\n      sload\n        /* \"contracts/HeapOrderBook.sol\":1302:1340  heap[left].price > heap[largest].price */\n      gt\n        /* \"contracts/HeapOrderBook.sol\":1283:1340  left < heapSize && heap[left].price > heap[largest].price */\n    tag_97:\n        /* \"contracts/HeapOrderBook.sol\":1279:1381  if (left < heapSize && heap[left].price > heap[largest].price) {... */\n      iszero\n      tag_104\n      jumpi\n        /* \"contracts/HeapOrderBook.sol\":1366:1370  left */\n      dup2\n        /* \"contracts/HeapOrderBook.sol\":1356:1370  largest = left */\n      swap3\n      pop\n        /* \"contracts/HeapOrderBook.sol\":1279:1381  if (left < heapSize && heap[left].price > heap[largest].price) {... */\n    tag_104:\n        /* \"contracts/HeapOrderBook.sol\":1402:1410  heapSize */\n      dup4\n        /* \"contracts/HeapOrderBook.sol\":1394:1399  right */\n      dup2\n        /* \"contracts/HeapOrderBook.sol\":1394:1410  right < heapSize */\n      lt\n        /* \"contracts/HeapOrderBook.sol\":1394:1453  right < heapSize && heap[right].price > heap[largest].price */\n      dup1\n      iszero\n      tag_105\n      jumpi\n      pop\n        /* \"contracts/HeapOrderBook.sol\":1434:1438  heap */\n      0x00\n        /* \"contracts/HeapOrderBook.sol\":1439:1446  largest */\n      dup4\n        /* \"contracts/HeapOrderBook.sol\":1434:1447  heap[largest] */\n      dup2\n      sload\n      dup2\n      lt\n      tag_106\n      jumpi\n      tag_107\n      tag_46\n      jump\t// in\n    tag_107:\n    tag_106:\n      swap1\n      0x00\n      mstore\n      keccak256(0x00, 0x20)\n      swap1\n      0x02\n      mul\n      add\n        /* \"contracts/HeapOrderBook.sol\":1434:1453  heap[largest].price */\n      0x00\n      add\n      sload\n        /* \"contracts/HeapOrderBook.sol\":1414:1418  heap */\n      0x00\n        /* \"contracts/HeapOrderBook.sol\":1419:1424  right */\n      dup3\n        /* \"contracts/HeapOrderBook.sol\":1414:1425  heap[right] */\n      dup2\n      sload\n      dup2\n      lt\n      tag_109\n      jumpi\n      tag_110\n      tag_46\n      jump\t// in\n    tag_110:\n    tag_109:\n      swap1\n      0x00\n      mstore\n      keccak256(0x00, 0x20)\n      swap1\n      0x02\n      mul\n      add\n        /* \"contracts/HeapOrderBook.sol\":1414:1431  heap[right].price */\n      0x00\n      add\n      sload\n        /* \"contracts/HeapOrderBook.sol\":1414:1453  heap[right].price > heap[largest].price */\n      gt\n        /* \"contracts/HeapOrderBook.sol\":1394:1453  right < heapSize && heap[right].price > heap[largest].price */\n    tag_105:\n        /* \"contracts/HeapOrderBook.sol\":1390:1495  if (right < heapSize && heap[right].price > heap[largest].price) {... */\n      iszero\n      tag_112\n      jumpi\n        /* \"contracts/HeapOrderBook.sol\":1479:1484  right */\n      dup1\n        /* \"contracts/HeapOrderBook.sol\":1469:1484  largest = right */\n      swap3\n      pop\n        /* \"contracts/HeapOrderBook.sol\":1390:1495  if (right < heapSize && heap[right].price > heap[largest].price) {... */\n    tag_112:\n        /* \"contracts/HeapOrderBook.sol\":1519:1520  i */\n      dup5\n        /* \"contracts/HeapOrderBook.sol\":1508:1515  largest */\n      dup4\n        /* \"contracts/HeapOrderBook.sol\":1508:1520  largest != i */\n      eq\n        /* \"contracts/HeapOrderBook.sol\":1504:1664  if (largest != i) {... */\n      tag_113\n      jumpi\n        /* \"contracts/HeapOrderBook.sol\":1576:1580  heap */\n      0x00\n        /* \"contracts/HeapOrderBook.sol\":1581:1588  largest */\n      dup4\n        /* \"contracts/HeapOrderBook.sol\":1576:1589  heap[largest] */\n      dup2\n      sload\n      dup2\n      lt\n      tag_114\n      jumpi\n      tag_115\n      tag_46\n      jump\t// in\n    tag_115:\n    tag_114:\n      swap1\n      0x00\n      mstore\n      keccak256(0x00, 0x20)\n      swap1\n      0x02\n      mul\n      add\n        /* \"contracts/HeapOrderBook.sol\":1576:1595  heap[largest].price */\n      0x00\n      add\n      sload\n        /* \"contracts/HeapOrderBook.sol\":1597:1601  heap */\n      0x00\n        /* \"contracts/HeapOrderBook.sol\":1602:1603  i */\n      dup7\n        /* \"contracts/HeapOrderBook.sol\":1597:1604  heap[i] */\n      dup2\n      sload\n      dup2\n      lt\n      tag_117\n      jumpi\n      tag_118\n      tag_46\n      jump\t// in\n    tag_118:\n    tag_117:\n      swap1\n      0x00\n      mstore\n      keccak256(0x00, 0x20)\n      swap1\n      0x02\n      mul\n      add\n        /* \"contracts/HeapOrderBook.sol\":1597:1610  heap[i].price */\n      0x00\n      add\n      sload\n        /* \"contracts/HeapOrderBook.sol\":1537:1541  heap */\n      0x00\n        /* \"contracts/HeapOrderBook.sol\":1542:1543  i */\n      dup8\n        /* \"contracts/HeapOrderBook.sol\":1537:1544  heap[i] */\n      dup2\n      sload\n      dup2\n      lt\n      tag_120\n      jumpi\n      tag_121\n      tag_46\n      jump\t// in\n    tag_121:\n    tag_120:\n      swap1\n      0x00\n      mstore\n      keccak256(0x00, 0x20)\n      swap1\n      0x02\n      mul\n      add\n        /* \"contracts/HeapOrderBook.sol\":1537:1550  heap[i].price */\n      0x00\n      add\n      0x00\n        /* \"contracts/HeapOrderBook.sol\":1552:1556  heap */\n      dup1\n        /* \"contracts/HeapOrderBook.sol\":1557:1564  largest */\n      dup8\n        /* \"contracts/HeapOrderBook.sol\":1552:1565  heap[largest] */\n      dup2\n      sload\n      dup2\n      lt\n      tag_123\n      jumpi\n      tag_124\n      tag_46\n      jump\t// in\n    tag_124:\n    tag_123:\n      swap1\n      0x00\n      mstore\n      keccak256(0x00, 0x20)\n      swap1\n      0x02\n      mul\n      add\n        /* \"contracts/HeapOrderBook.sol\":1552:1571  heap[largest].price */\n      0x00\n      add\n      0x00\n        /* \"contracts/HeapOrderBook.sol\":1536:1611  (heap[i].price, heap[largest].price) = (heap[largest].price, heap[i].price) */\n      dup5\n      swap2\n      swap1\n      pop\n      sstore\n      dup4\n      swap2\n      swap1\n      pop\n      sstore\n      pop\n      pop\n        /* \"contracts/HeapOrderBook.sol\":1625:1653  maxHeapify(largest,heapSize) */\n      tag_126\n        /* \"contracts/HeapOrderBook.sol\":1636:1643  largest */\n      dup4\n        /* \"contracts/HeapOrderBook.sol\":1644:1652  heapSize */\n      dup6\n        /* \"contracts/HeapOrderBook.sol\":1625:1635  maxHeapify */\n      tag_76\n        /* \"contracts/HeapOrderBook.sol\":1625:1653  maxHeapify(largest,heapSize) */\n      jump\t// in\n    tag_126:\n        /* \"contracts/HeapOrderBook.sol\":1504:1664  if (largest != i) {... */\n    tag_113:\n        /* \"contracts/HeapOrderBook.sol\":1177:1670  {... */\n      pop\n      pop\n      pop\n        /* \"contracts/HeapOrderBook.sol\":1125:1670  function maxHeapify(uint i, uint heapSize) internal {... */\n      pop\n      pop\n      jump\t// out\n        /* \"#utility.yul\":88:205   */\n    tag_128:\n        /* \"#utility.yul\":197:198   */\n      0x00\n        /* \"#utility.yul\":194:195   */\n      dup1\n        /* \"#utility.yul\":187:199   */\n      revert\n        /* \"#utility.yul\":334:411   */\n    tag_130:\n        /* \"#utility.yul\":371:378   */\n      0x00\n        /* \"#utility.yul\":400:405   */\n      dup2\n        /* \"#utility.yul\":389:405   */\n      swap1\n      pop\n        /* \"#utility.yul\":334:411   */\n      swap2\n      swap1\n      pop\n      jump\t// out\n        /* \"#utility.yul\":417:539   */\n    tag_131:\n        /* \"#utility.yul\":490:514   */\n      tag_142\n        /* \"#utility.yul\":508:513   */\n      dup2\n        /* \"#utility.yul\":490:514   */\n      tag_130\n      jump\t// in\n    tag_142:\n        /* \"#utility.yul\":483:488   */\n      dup2\n        /* \"#utility.yul\":480:515   */\n      eq\n        /* \"#utility.yul\":470:533   */\n      tag_143\n      jumpi\n        /* \"#utility.yul\":529:530   */\n      0x00\n        /* \"#utility.yul\":526:527   */\n      dup1\n        /* \"#utility.yul\":519:531   */\n      revert\n        /* \"#utility.yul\":470:533   */\n    tag_143:\n        /* \"#utility.yul\":417:539   */\n      pop\n      jump\t// out\n        /* \"#utility.yul\":545:684   */\n    tag_132:\n        /* \"#utility.yul\":591:596   */\n      0x00\n        /* \"#utility.yul\":629:635   */\n      dup2\n        /* \"#utility.yul\":616:636   */\n      calldataload\n        /* \"#utility.yul\":607:636   */\n      swap1\n      pop\n        /* \"#utility.yul\":645:678   */\n      tag_145\n        /* \"#utility.yul\":672:677   */\n      dup2\n        /* \"#utility.yul\":645:678   */\n      tag_131\n      jump\t// in\n    tag_145:\n        /* \"#utility.yul\":545:684   */\n      swap3\n      swap2\n      pop\n      pop\n      jump\t// out\n        /* \"#utility.yul\":690:1019   */\n    tag_15:\n        /* \"#utility.yul\":749:755   */\n      0x00\n        /* \"#utility.yul\":798:800   */\n      0x20\n        /* \"#utility.yul\":786:795   */\n      dup3\n        /* \"#utility.yul\":777:784   */\n      dup5\n        /* \"#utility.yul\":773:796   */\n      sub\n        /* \"#utility.yul\":769:801   */\n      slt\n        /* \"#utility.yul\":766:885   */\n      iszero\n      tag_147\n      jumpi\n        /* \"#utility.yul\":804:883   */\n      tag_148\n      tag_128\n      jump\t// in\n    tag_148:\n        /* \"#utility.yul\":766:885   */\n    tag_147:\n        /* \"#utility.yul\":924:925   */\n      0x00\n        /* \"#utility.yul\":949:1002   */\n      tag_149\n        /* \"#utility.yul\":994:1001   */\n      dup5\n        /* \"#utility.yul\":985:991   */\n      dup3\n        /* \"#utility.yul\":974:983   */\n      dup6\n        /* \"#utility.yul\":970:992   */\n      add\n        /* \"#utility.yul\":949:1002   */\n      tag_132\n      jump\t// in\n    tag_149:\n        /* \"#utility.yul\":939:1002   */\n      swap2\n      pop\n        /* \"#utility.yul\":895:1012   */\n      pop\n        /* \"#utility.yul\":690:1019   */\n      swap3\n      swap2\n      pop\n      pop\n      jump\t// out\n        /* \"#utility.yul\":1025:1143   */\n    tag_133:\n        /* \"#utility.yul\":1112:1136   */\n      tag_151\n        /* \"#utility.yul\":1130:1135   */\n      dup2\n        /* \"#utility.yul\":1112:1136   */\n      tag_130\n      jump\t// in\n    tag_151:\n        /* \"#utility.yul\":1107:1110   */\n      dup3\n        /* \"#utility.yul\":1100:1137   */\n      mstore\n        /* \"#utility.yul\":1025:1143   */\n      pop\n      pop\n      jump\t// out\n        /* \"#utility.yul\":1149:1481   */\n    tag_18:\n        /* \"#utility.yul\":1270:1274   */\n      0x00\n        /* \"#utility.yul\":1308:1310   */\n      0x40\n        /* \"#utility.yul\":1297:1306   */\n      dup3\n        /* \"#utility.yul\":1293:1311   */\n      add\n        /* \"#utility.yul\":1285:1311   */\n      swap1\n      pop\n        /* \"#utility.yul\":1321:1392   */\n      tag_153\n        /* \"#utility.yul\":1389:1390   */\n      0x00\n        /* \"#utility.yul\":1378:1387   */\n      dup4\n        /* \"#utility.yul\":1374:1391   */\n      add\n        /* \"#utility.yul\":1365:1371   */\n      dup6\n        /* \"#utility.yul\":1321:1392   */\n      tag_133\n      jump\t// in\n    tag_153:\n        /* \"#utility.yul\":1402:1474   */\n      tag_154\n        /* \"#utility.yul\":1470:1472   */\n      0x20\n        /* \"#utility.yul\":1459:1468   */\n      dup4\n        /* \"#utility.yul\":1455:1473   */\n      add\n        /* \"#utility.yul\":1446:1452   */\n      dup5\n        /* \"#utility.yul\":1402:1474   */\n      tag_133\n      jump\t// in\n    tag_154:\n        /* \"#utility.yul\":1149:1481   */\n      swap4\n      swap3\n      pop\n      pop\n      pop\n      jump\t// out\n        /* \"#utility.yul\":1487:1709   */\n    tag_22:\n        /* \"#utility.yul\":1580:1584   */\n      0x00\n        /* \"#utility.yul\":1618:1620   */\n      0x20\n        /* \"#utility.yul\":1607:1616   */\n      dup3\n        /* \"#utility.yul\":1603:1621   */\n      add\n        /* \"#utility.yul\":1595:1621   */\n      swap1\n      pop\n        /* \"#utility.yul\":1631:1702   */\n      tag_156\n        /* \"#utility.yul\":1699:1700   */\n      0x00\n        /* \"#utility.yul\":1688:1697   */\n      dup4\n        /* \"#utility.yul\":1684:1701   */\n      add\n        /* \"#utility.yul\":1675:1681   */\n      dup5\n        /* \"#utility.yul\":1631:1702   */\n      tag_133\n      jump\t// in\n    tag_156:\n        /* \"#utility.yul\":1487:1709   */\n      swap3\n      swap2\n      pop\n      pop\n      jump\t// out\n        /* \"#utility.yul\":1715:2189   */\n    tag_32:\n        /* \"#utility.yul\":1783:1789   */\n      0x00\n        /* \"#utility.yul\":1791:1797   */\n      dup1\n        /* \"#utility.yul\":1840:1842   */\n      0x40\n        /* \"#utility.yul\":1828:1837   */\n      dup4\n        /* \"#utility.yul\":1819:1826   */\n      dup6\n        /* \"#utility.yul\":1815:1838   */\n      sub\n        /* \"#utility.yul\":1811:1843   */\n      slt\n        /* \"#utility.yul\":1808:1927   */\n      iszero\n      tag_158\n      jumpi\n        /* \"#utility.yul\":1846:1925   */\n      tag_159\n      tag_128\n      jump\t// in\n    tag_159:\n        /* \"#utility.yul\":1808:1927   */\n    tag_158:\n        /* \"#utility.yul\":1966:1967   */\n      0x00\n        /* \"#utility.yul\":1991:2044   */\n      tag_160\n        /* \"#utility.yul\":2036:2043   */\n      dup6\n        /* \"#utility.yul\":2027:2033   */\n      dup3\n        /* \"#utility.yul\":2016:2025   */\n      dup7\n        /* \"#utility.yul\":2012:2034   */\n      add\n        /* \"#utility.yul\":1991:2044   */\n      tag_132\n      jump\t// in\n    tag_160:\n        /* \"#utility.yul\":1981:2044   */\n      swap3\n      pop\n        /* \"#utility.yul\":1937:2054   */\n      pop\n        /* \"#utility.yul\":2093:2095   */\n      0x20\n        /* \"#utility.yul\":2119:2172   */\n      tag_161\n        /* \"#utility.yul\":2164:2171   */\n      dup6\n        /* \"#utility.yul\":2155:2161   */\n      dup3\n        /* \"#utility.yul\":2144:2153   */\n      dup7\n        /* \"#utility.yul\":2140:2162   */\n      add\n        /* \"#utility.yul\":2119:2172   */\n      tag_132\n      jump\t// in\n    tag_161:\n        /* \"#utility.yul\":2109:2172   */\n      swap2\n      pop\n        /* \"#utility.yul\":2064:2182   */\n      pop\n        /* \"#utility.yul\":1715:2189   */\n      swap3\n      pop\n      swap3\n      swap1\n      pop\n      jump\t// out\n        /* \"#utility.yul\":2195:2375   */\n    tag_38:\n        /* \"#utility.yul\":2243:2320   */\n      0x4e487b7100000000000000000000000000000000000000000000000000000000\n        /* \"#utility.yul\":2240:2241   */\n      0x00\n        /* \"#utility.yul\":2233:2321   */\n      mstore\n        /* \"#utility.yul\":2340:2344   */\n      0x31\n        /* \"#utility.yul\":2337:2338   */\n      0x04\n        /* \"#utility.yul\":2330:2345   */\n      mstore\n        /* \"#utility.yul\":2364:2368   */\n      0x24\n        /* \"#utility.yul\":2361:2362   */\n      0x00\n        /* \"#utility.yul\":2354:2369   */\n      revert\n        /* \"#utility.yul\":2381:2561   */\n    tag_46:\n        /* \"#utility.yul\":2429:2506   */\n      0x4e487b7100000000000000000000000000000000000000000000000000000000\n        /* \"#utility.yul\":2426:2427   */\n      0x00\n        /* \"#utility.yul\":2419:2507   */\n      mstore\n        /* \"#utility.yul\":2526:2530   */\n      0x32\n        /* \"#utility.yul\":2523:2524   */\n      0x04\n        /* \"#utility.yul\":2516:2531   */\n      mstore\n        /* \"#utility.yul\":2550:2554   */\n      0x24\n        /* \"#utility.yul\":2547:2548   */\n      0x00\n        /* \"#utility.yul\":2540:2555   */\n      revert\n        /* \"#utility.yul\":2567:2747   */\n    tag_134:\n        /* \"#utility.yul\":2615:2692   */\n      0x4e487b7100000000000000000000000000000000000000000000000000000000\n        /* \"#utility.yul\":2612:2613   */\n      0x00\n        /* \"#utility.yul\":2605:2693   */\n      mstore\n        /* \"#utility.yul\":2712:2716   */\n      0x11\n        /* \"#utility.yul\":2709:2710   */\n      0x04\n        /* \"#utility.yul\":2702:2717   */\n      mstore\n        /* \"#utility.yul\":2736:2740   */\n      0x24\n        /* \"#utility.yul\":2733:2734   */\n      0x00\n        /* \"#utility.yul\":2726:2741   */\n      revert\n        /* \"#utility.yul\":2753:2947   */\n    tag_51:\n        /* \"#utility.yul\":2793:2797   */\n      0x00\n        /* \"#utility.yul\":2813:2833   */\n      tag_166\n        /* \"#utility.yul\":2831:2832   */\n      dup3\n        /* \"#utility.yul\":2813:2833   */\n      tag_130\n      jump\t// in\n    tag_166:\n        /* \"#utility.yul\":2808:2833   */\n      swap2\n      pop\n        /* \"#utility.yul\":2847:2867   */\n      tag_167\n        /* \"#utility.yul\":2865:2866   */\n      dup4\n        /* \"#utility.yul\":2847:2867   */\n      tag_130\n      jump\t// in\n    tag_167:\n        /* \"#utility.yul\":2842:2867   */\n      swap3\n      pop\n        /* \"#utility.yul\":2891:2892   */\n      dup3\n        /* \"#utility.yul\":2888:2889   */\n      dup3\n        /* \"#utility.yul\":2884:2893   */\n      sub\n        /* \"#utility.yul\":2876:2893   */\n      swap1\n      pop\n        /* \"#utility.yul\":2915:2916   */\n      dup2\n        /* \"#utility.yul\":2909:2913   */\n      dup2\n        /* \"#utility.yul\":2906:2917   */\n      gt\n        /* \"#utility.yul\":2903:2940   */\n      iszero\n      tag_168\n      jumpi\n        /* \"#utility.yul\":2920:2938   */\n      tag_169\n      tag_134\n      jump\t// in\n    tag_169:\n        /* \"#utility.yul\":2903:2940   */\n    tag_168:\n        /* \"#utility.yul\":2753:2947   */\n      swap3\n      swap2\n      pop\n      pop\n      jump\t// out\n        /* \"#utility.yul\":2953:3124   */\n    tag_74:\n        /* \"#utility.yul\":2992:2995   */\n      0x00\n        /* \"#utility.yul\":3015:3039   */\n      tag_171\n        /* \"#utility.yul\":3033:3038   */\n      dup3\n        /* \"#utility.yul\":3015:3039   */\n      tag_130\n      jump\t// in\n    tag_171:\n        /* \"#utility.yul\":3006:3039   */\n      swap2\n      pop\n        /* \"#utility.yul\":3061:3065   */\n      0x00\n        /* \"#utility.yul\":3054:3059   */\n      dup3\n        /* \"#utility.yul\":3051:3066   */\n      sub\n        /* \"#utility.yul\":3048:3089   */\n      tag_172\n      jumpi\n        /* \"#utility.yul\":3069:3087   */\n      tag_173\n      tag_134\n      jump\t// in\n    tag_173:\n        /* \"#utility.yul\":3048:3089   */\n    tag_172:\n        /* \"#utility.yul\":3116:3117   */\n      0x01\n        /* \"#utility.yul\":3109:3114   */\n      dup3\n        /* \"#utility.yul\":3105:3118   */\n      sub\n        /* \"#utility.yul\":3098:3118   */\n      swap1\n      pop\n        /* \"#utility.yul\":2953:3124   */\n      swap2\n      swap1\n      pop\n      jump\t// out\n        /* \"#utility.yul\":3130:3310   */\n    tag_135:\n        /* \"#utility.yul\":3178:3255   */\n      0x4e487b7100000000000000000000000000000000000000000000000000000000\n        /* \"#utility.yul\":3175:3176   */\n      0x00\n        /* \"#utility.yul\":3168:3256   */\n      mstore\n        /* \"#utility.yul\":3275:3279   */\n      0x12\n        /* \"#utility.yul\":3272:3273   */\n      0x04\n        /* \"#utility.yul\":3265:3280   */\n      mstore\n        /* \"#utility.yul\":3299:3303   */\n      0x24\n        /* \"#utility.yul\":3296:3297   */\n      0x00\n        /* \"#utility.yul\":3289:3304   */\n      revert\n        /* \"#utility.yul\":3316:3501   */\n    tag_83:\n        /* \"#utility.yul\":3356:3357   */\n      0x00\n        /* \"#utility.yul\":3373:3393   */\n      tag_176\n        /* \"#utility.yul\":3391:3392   */\n      dup3\n        /* \"#utility.yul\":3373:3393   */\n      tag_130\n      jump\t// in\n    tag_176:\n        /* \"#utility.yul\":3368:3393   */\n      swap2\n      pop\n        /* \"#utility.yul\":3407:3427   */\n      tag_177\n        /* \"#utility.yul\":3425:3426   */\n      dup4\n        /* \"#utility.yul\":3407:3427   */\n      tag_130\n      jump\t// in\n    tag_177:\n        /* \"#utility.yul\":3402:3427   */\n      swap3\n      pop\n        /* \"#utility.yul\":3446:3447   */\n      dup3\n        /* \"#utility.yul\":3436:3471   */\n      tag_178\n      jumpi\n        /* \"#utility.yul\":3451:3469   */\n      tag_179\n      tag_135\n      jump\t// in\n    tag_179:\n        /* \"#utility.yul\":3436:3471   */\n    tag_178:\n        /* \"#utility.yul\":3493:3494   */\n      dup3\n        /* \"#utility.yul\":3490:3491   */\n      dup3\n        /* \"#utility.yul\":3486:3495   */\n      div\n        /* \"#utility.yul\":3481:3495   */\n      swap1\n      pop\n        /* \"#utility.yul\":3316:3501   */\n      swap3\n      swap2\n      pop\n      pop\n      jump\t// out\n        /* \"#utility.yul\":3507:3917   */\n    tag_92:\n        /* \"#utility.yul\":3547:3554   */\n      0x00\n        /* \"#utility.yul\":3570:3590   */\n      tag_181\n        /* \"#utility.yul\":3588:3589   */\n      dup3\n        /* \"#utility.yul\":3570:3590   */\n      tag_130\n      jump\t// in\n    tag_181:\n        /* \"#utility.yul\":3565:3590   */\n      swap2\n      pop\n        /* \"#utility.yul\":3604:3624   */\n      tag_182\n        /* \"#utility.yul\":3622:3623   */\n      dup4\n        /* \"#utility.yul\":3604:3624   */\n      tag_130\n      jump\t// in\n    tag_182:\n        /* \"#utility.yul\":3599:3624   */\n      swap3\n      pop\n        /* \"#utility.yul\":3659:3660   */\n      dup3\n        /* \"#utility.yul\":3656:3657   */\n      dup3\n        /* \"#utility.yul\":3652:3661   */\n      mul\n        /* \"#utility.yul\":3681:3711   */\n      tag_183\n        /* \"#utility.yul\":3699:3710   */\n      dup2\n        /* \"#utility.yul\":3681:3711   */\n      tag_130\n      jump\t// in\n    tag_183:\n        /* \"#utility.yul\":3670:3711   */\n      swap2\n      pop\n        /* \"#utility.yul\":3860:3861   */\n      dup3\n        /* \"#utility.yul\":3851:3858   */\n      dup3\n        /* \"#utility.yul\":3847:3862   */\n      div\n        /* \"#utility.yul\":3844:3845   */\n      dup5\n        /* \"#utility.yul\":3841:3863   */\n      eq\n        /* \"#utility.yul\":3821:3822   */\n      dup4\n        /* \"#utility.yul\":3814:3823   */\n      iszero\n        /* \"#utility.yul\":3794:3877   */\n      or\n        /* \"#utility.yul\":3771:3910   */\n      tag_184\n      jumpi\n        /* \"#utility.yul\":3890:3908   */\n      tag_185\n      tag_134\n      jump\t// in\n    tag_185:\n        /* \"#utility.yul\":3771:3910   */\n    tag_184:\n        /* \"#utility.yul\":3555:3917   */\n      pop\n        /* \"#utility.yul\":3507:3917   */\n      swap3\n      swap2\n      pop\n      pop\n      jump\t// out\n        /* \"#utility.yul\":3923:4114   */\n    tag_94:\n        /* \"#utility.yul\":3963:3966   */\n      0x00\n        /* \"#utility.yul\":3982:4002   */\n      tag_187\n        /* \"#utility.yul\":4000:4001   */\n      dup3\n        /* \"#utility.yul\":3982:4002   */\n      tag_130\n      jump\t// in\n    tag_187:\n        /* \"#utility.yul\":3977:4002   */\n      swap2\n      pop\n        /* \"#utility.yul\":4016:4036   */\n      tag_188\n        /* \"#utility.yul\":4034:4035   */\n      dup4\n        /* \"#utility.yul\":4016:4036   */\n      tag_130\n      jump\t// in\n    tag_188:\n        /* \"#utility.yul\":4011:4036   */\n      swap3\n      pop\n        /* \"#utility.yul\":4059:4060   */\n      dup3\n        /* \"#utility.yul\":4056:4057   */\n      dup3\n        /* \"#utility.yul\":4052:4061   */\n      add\n        /* \"#utility.yul\":4045:4061   */\n      swap1\n      pop\n        /* \"#utility.yul\":4080:4083   */\n      dup1\n        /* \"#utility.yul\":4077:4078   */\n      dup3\n        /* \"#utility.yul\":4074:4084   */\n      gt\n        /* \"#utility.yul\":4071:4107   */\n      iszero\n      tag_189\n      jumpi\n        /* \"#utility.yul\":4087:4105   */\n      tag_190\n      tag_134\n      jump\t// in\n    tag_190:\n        /* \"#utility.yul\":4071:4107   */\n    tag_189:\n        /* \"#utility.yul\":3923:4114   */\n      swap3\n      swap2\n      pop\n      pop\n      jump\t// out\n\n    auxdata: 0xa26469706673582212209e59a922610d494a8bb8ec375e03b70905d78b2d25cb4af354833aa05e360a2864736f6c63430008180033\n}\n",
				"bytecode": {
					"linkReferences": {},
					"object": "608060405234801561000f575f80fd5b506108158061001d5f395ff3fe608060405234801561000f575f80fd5b506004361061007b575f3560e01c8063737385ac11610059578063737385ac146100d8578063aac12b4b146100f6578063b13c9ca914610100578063c37dfc5b1461010a5761007b565b806302a08baf1461007f5780631c01f292146100895780635d3b69b6146100ba575b5f80fd5b610087610126565b005b6100a3600480360381019061009e9190610575565b610165565b6040516100b19291906105af565b60405180910390f35b6100c2610193565b6040516100cf91906105d6565b60405180910390f35b6100e06101c3565b6040516100ed91906105d6565b60405180910390f35b6100fe610203565b005b6101086102ef565b005b610124600480360381019061011f91906105ef565b61034a565b005b61012e610203565b5f80548061013f5761013e61062d565b5b600190038181905f5260205f2090600202015f8082015f9055600182015f905550509055565b5f8181548110610173575f80fd5b905f5260205f2090600202015f91509050805f0154908060010154905082565b5f61019c610203565b5f80815481106101af576101ae61065a565b5b905f5260205f2090600202015f0154905090565b5f6101cc610203565b5f60015f805490506101de91906106b4565b815481106101ef576101ee61065a565b5b905f5260205f2090600202015f0154905090565b61020b6102ef565b5f808054905090505f60018261022191906106b4565b90505b5f8111156102eb575f818154811061023f5761023e61065a565b5b905f5260205f2090600202015f01545f80815481106102615761026061065a565b5b905f5260205f2090600202015f01545f80815481106102835761028261065a565b5b905f5260205f2090600202015f015f8085815481106102a5576102a461065a565b5b905f5260205f2090600202015f015f84919050558391905055505081806102cb906106e7565b9250506102d85f836103a3565b80806102e3906106e7565b915050610224565b5050565b5f600160025f80549050610303919061073b565b61030d91906106b4565b90505b5f81111561033957610326815f805490506103a3565b8080610331906106e7565b915050610310565b506103485f80805490506103a3565b565b5f60405180604001604052808481526020018381525090505f81908060018154018082558091505060019003905f5260205f2090600202015f909190919091505f820151815f0155602082015181600101555050505050565b5f8290505f60018460026103b7919061076b565b6103c191906107ac565b90505f60028560026103d3919061076b565b6103dd91906107ac565b9050838210801561042f57505f83815481106103fc576103fb61065a565b5b905f5260205f2090600202015f01545f838154811061041e5761041d61065a565b5b905f5260205f2090600202015f0154115b15610438578192505b838110801561048857505f83815481106104555761045461065a565b5b905f5260205f2090600202015f01545f82815481106104775761047661065a565b5b905f5260205f2090600202015f0154115b15610491578092505b848314610537575f83815481106104ab576104aa61065a565b5b905f5260205f2090600202015f01545f86815481106104cd576104cc61065a565b5b905f5260205f2090600202015f01545f87815481106104ef576104ee61065a565b5b905f5260205f2090600202015f015f8087815481106105115761051061065a565b5b905f5260205f2090600202015f015f84919050558391905055505061053683856103a3565b5b5050505050565b5f80fd5b5f819050919050565b61055481610542565b811461055e575f80fd5b50565b5f8135905061056f8161054b565b92915050565b5f6020828403121561058a5761058961053e565b5b5f61059784828501610561565b91505092915050565b6105a981610542565b82525050565b5f6040820190506105c25f8301856105a0565b6105cf60208301846105a0565b9392505050565b5f6020820190506105e95f8301846105a0565b92915050565b5f80604083850312156106055761060461053e565b5b5f61061285828601610561565b925050602061062385828601610561565b9150509250929050565b7f4e487b71000000000000000000000000000000000000000000000000000000005f52603160045260245ffd5b7f4e487b71000000000000000000000000000000000000000000000000000000005f52603260045260245ffd5b7f4e487b71000000000000000000000000000000000000000000000000000000005f52601160045260245ffd5b5f6106be82610542565b91506106c983610542565b92508282039050818111156106e1576106e0610687565b5b92915050565b5f6106f182610542565b91505f820361070357610702610687565b5b600182039050919050565b7f4e487b71000000000000000000000000000000000000000000000000000000005f52601260045260245ffd5b5f61074582610542565b915061075083610542565b9250826107605761075f61070e565b5b828204905092915050565b5f61077582610542565b915061078083610542565b925082820261078e81610542565b915082820484148315176107a5576107a4610687565b5b5092915050565b5f6107b682610542565b91506107c183610542565b92508282019050808211156107d9576107d8610687565b5b9291505056fea26469706673582212209e59a922610d494a8bb8ec375e03b70905d78b2d25cb4af354833aa05e360a2864736f6c63430008180033",
					"opcodes": "PUSH1 0x80 PUSH1 0x40 MSTORE CALLVALUE DUP1 ISZERO PUSH2 0xF JUMPI PUSH0 DUP1 REVERT JUMPDEST POP PUSH2 0x815 DUP1 PUSH2 0x1D PUSH0 CODECOPY PUSH0 RETURN INVALID PUSH1 0x80 PUSH1 0x40 MSTORE CALLVALUE DUP1 ISZERO PUSH2 0xF JUMPI PUSH0 DUP1 REVERT JUMPDEST POP PUSH1 0x4 CALLDATASIZE LT PUSH2 0x7B JUMPI PUSH0 CALLDATALOAD PUSH1 0xE0 SHR DUP1 PUSH4 0x737385AC GT PUSH2 0x59 JUMPI DUP1 PUSH4 0x737385AC EQ PUSH2 0xD8 JUMPI DUP1 PUSH4 0xAAC12B4B EQ PUSH2 0xF6 JUMPI DUP1 PUSH4 0xB13C9CA9 EQ PUSH2 0x100 JUMPI DUP1 PUSH4 0xC37DFC5B EQ PUSH2 0x10A JUMPI PUSH2 0x7B JUMP JUMPDEST DUP1 PUSH4 0x2A08BAF EQ PUSH2 0x7F JUMPI DUP1 PUSH4 0x1C01F292 EQ PUSH2 0x89 JUMPI DUP1 PUSH4 0x5D3B69B6 EQ PUSH2 0xBA JUMPI JUMPDEST PUSH0 DUP1 REVERT JUMPDEST PUSH2 0x87 PUSH2 0x126 JUMP JUMPDEST STOP JUMPDEST PUSH2 0xA3 PUSH1 0x4 DUP1 CALLDATASIZE SUB DUP2 ADD SWAP1 PUSH2 0x9E SWAP2 SWAP1 PUSH2 0x575 JUMP JUMPDEST PUSH2 0x165 JUMP JUMPDEST PUSH1 0x40 MLOAD PUSH2 0xB1 SWAP3 SWAP2 SWAP1 PUSH2 0x5AF JUMP JUMPDEST PUSH1 0x40 MLOAD DUP1 SWAP2 SUB SWAP1 RETURN JUMPDEST PUSH2 0xC2 PUSH2 0x193 JUMP JUMPDEST PUSH1 0x40 MLOAD PUSH2 0xCF SWAP2 SWAP1 PUSH2 0x5D6 JUMP JUMPDEST PUSH1 0x40 MLOAD DUP1 SWAP2 SUB SWAP1 RETURN JUMPDEST PUSH2 0xE0 PUSH2 0x1C3 JUMP JUMPDEST PUSH1 0x40 MLOAD PUSH2 0xED SWAP2 SWAP1 PUSH2 0x5D6 JUMP JUMPDEST PUSH1 0x40 MLOAD DUP1 SWAP2 SUB SWAP1 RETURN JUMPDEST PUSH2 0xFE PUSH2 0x203 JUMP JUMPDEST STOP JUMPDEST PUSH2 0x108 PUSH2 0x2EF JUMP JUMPDEST STOP JUMPDEST PUSH2 0x124 PUSH1 0x4 DUP1 CALLDATASIZE SUB DUP2 ADD SWAP1 PUSH2 0x11F SWAP2 SWAP1 PUSH2 0x5EF JUMP JUMPDEST PUSH2 0x34A JUMP JUMPDEST STOP JUMPDEST PUSH2 0x12E PUSH2 0x203 JUMP JUMPDEST PUSH0 DUP1 SLOAD DUP1 PUSH2 0x13F JUMPI PUSH2 0x13E PUSH2 0x62D JUMP JUMPDEST JUMPDEST PUSH1 0x1 SWAP1 SUB DUP2 DUP2 SWAP1 PUSH0 MSTORE PUSH1 0x20 PUSH0 KECCAK256 SWAP1 PUSH1 0x2 MUL ADD PUSH0 DUP1 DUP3 ADD PUSH0 SWAP1 SSTORE PUSH1 0x1 DUP3 ADD PUSH0 SWAP1 SSTORE POP POP SWAP1 SSTORE JUMP JUMPDEST PUSH0 DUP2 DUP2 SLOAD DUP2 LT PUSH2 0x173 JUMPI PUSH0 DUP1 REVERT JUMPDEST SWAP1 PUSH0 MSTORE PUSH1 0x20 PUSH0 KECCAK256 SWAP1 PUSH1 0x2 MUL ADD PUSH0 SWAP2 POP SWAP1 POP DUP1 PUSH0 ADD SLOAD SWAP1 DUP1 PUSH1 0x1 ADD SLOAD SWAP1 POP DUP3 JUMP JUMPDEST PUSH0 PUSH2 0x19C PUSH2 0x203 JUMP JUMPDEST PUSH0 DUP1 DUP2 SLOAD DUP2 LT PUSH2 0x1AF JUMPI PUSH2 0x1AE PUSH2 0x65A JUMP JUMPDEST JUMPDEST SWAP1 PUSH0 MSTORE PUSH1 0x20 PUSH0 KECCAK256 SWAP1 PUSH1 0x2 MUL ADD PUSH0 ADD SLOAD SWAP1 POP SWAP1 JUMP JUMPDEST PUSH0 PUSH2 0x1CC PUSH2 0x203 JUMP JUMPDEST PUSH0 PUSH1 0x1 PUSH0 DUP1 SLOAD SWAP1 POP PUSH2 0x1DE SWAP2 SWAP1 PUSH2 0x6B4 JUMP JUMPDEST DUP2 SLOAD DUP2 LT PUSH2 0x1EF JUMPI PUSH2 0x1EE PUSH2 0x65A JUMP JUMPDEST JUMPDEST SWAP1 PUSH0 MSTORE PUSH1 0x20 PUSH0 KECCAK256 SWAP1 PUSH1 0x2 MUL ADD PUSH0 ADD SLOAD SWAP1 POP SWAP1 JUMP JUMPDEST PUSH2 0x20B PUSH2 0x2EF JUMP JUMPDEST PUSH0 DUP1 DUP1 SLOAD SWAP1 POP SWAP1 POP PUSH0 PUSH1 0x1 DUP3 PUSH2 0x221 SWAP2 SWAP1 PUSH2 0x6B4 JUMP JUMPDEST SWAP1 POP JUMPDEST PUSH0 DUP2 GT ISZERO PUSH2 0x2EB JUMPI PUSH0 DUP2 DUP2 SLOAD DUP2 LT PUSH2 0x23F JUMPI PUSH2 0x23E PUSH2 0x65A JUMP JUMPDEST JUMPDEST SWAP1 PUSH0 MSTORE PUSH1 0x20 PUSH0 KECCAK256 SWAP1 PUSH1 0x2 MUL ADD PUSH0 ADD SLOAD PUSH0 DUP1 DUP2 SLOAD DUP2 LT PUSH2 0x261 JUMPI PUSH2 0x260 PUSH2 0x65A JUMP JUMPDEST JUMPDEST SWAP1 PUSH0 MSTORE PUSH1 0x20 PUSH0 KECCAK256 SWAP1 PUSH1 0x2 MUL ADD PUSH0 ADD SLOAD PUSH0 DUP1 DUP2 SLOAD DUP2 LT PUSH2 0x283 JUMPI PUSH2 0x282 PUSH2 0x65A JUMP JUMPDEST JUMPDEST SWAP1 PUSH0 MSTORE PUSH1 0x20 PUSH0 KECCAK256 SWAP1 PUSH1 0x2 MUL ADD PUSH0 ADD PUSH0 DUP1 DUP6 DUP2 SLOAD DUP2 LT PUSH2 0x2A5 JUMPI PUSH2 0x2A4 PUSH2 0x65A JUMP JUMPDEST JUMPDEST SWAP1 PUSH0 MSTORE PUSH1 0x20 PUSH0 KECCAK256 SWAP1 PUSH1 0x2 MUL ADD PUSH0 ADD PUSH0 DUP5 SWAP2 SWAP1 POP SSTORE DUP4 SWAP2 SWAP1 POP SSTORE POP POP DUP2 DUP1 PUSH2 0x2CB SWAP1 PUSH2 0x6E7 JUMP JUMPDEST SWAP3 POP POP PUSH2 0x2D8 PUSH0 DUP4 PUSH2 0x3A3 JUMP JUMPDEST DUP1 DUP1 PUSH2 0x2E3 SWAP1 PUSH2 0x6E7 JUMP JUMPDEST SWAP2 POP POP PUSH2 0x224 JUMP JUMPDEST POP POP JUMP JUMPDEST PUSH0 PUSH1 0x1 PUSH1 0x2 PUSH0 DUP1 SLOAD SWAP1 POP PUSH2 0x303 SWAP2 SWAP1 PUSH2 0x73B JUMP JUMPDEST PUSH2 0x30D SWAP2 SWAP1 PUSH2 0x6B4 JUMP JUMPDEST SWAP1 POP JUMPDEST PUSH0 DUP2 GT ISZERO PUSH2 0x339 JUMPI PUSH2 0x326 DUP2 PUSH0 DUP1 SLOAD SWAP1 POP PUSH2 0x3A3 JUMP JUMPDEST DUP1 DUP1 PUSH2 0x331 SWAP1 PUSH2 0x6E7 JUMP JUMPDEST SWAP2 POP POP PUSH2 0x310 JUMP JUMPDEST POP PUSH2 0x348 PUSH0 DUP1 DUP1 SLOAD SWAP1 POP PUSH2 0x3A3 JUMP JUMPDEST JUMP JUMPDEST PUSH0 PUSH1 0x40 MLOAD DUP1 PUSH1 0x40 ADD PUSH1 0x40 MSTORE DUP1 DUP5 DUP2 MSTORE PUSH1 0x20 ADD DUP4 DUP2 MSTORE POP SWAP1 POP PUSH0 DUP2 SWAP1 DUP1 PUSH1 0x1 DUP2 SLOAD ADD DUP1 DUP3 SSTORE DUP1 SWAP2 POP POP PUSH1 0x1 SWAP1 SUB SWAP1 PUSH0 MSTORE PUSH1 0x20 PUSH0 KECCAK256 SWAP1 PUSH1 0x2 MUL ADD PUSH0 SWAP1 SWAP2 SWAP1 SWAP2 SWAP1 SWAP2 POP PUSH0 DUP3 ADD MLOAD DUP2 PUSH0 ADD SSTORE PUSH1 0x20 DUP3 ADD MLOAD DUP2 PUSH1 0x1 ADD SSTORE POP POP POP POP POP JUMP JUMPDEST PUSH0 DUP3 SWAP1 POP PUSH0 PUSH1 0x1 DUP5 PUSH1 0x2 PUSH2 0x3B7 SWAP2 SWAP1 PUSH2 0x76B JUMP JUMPDEST PUSH2 0x3C1 SWAP2 SWAP1 PUSH2 0x7AC JUMP JUMPDEST SWAP1 POP PUSH0 PUSH1 0x2 DUP6 PUSH1 0x2 PUSH2 0x3D3 SWAP2 SWAP1 PUSH2 0x76B JUMP JUMPDEST PUSH2 0x3DD SWAP2 SWAP1 PUSH2 0x7AC JUMP JUMPDEST SWAP1 POP DUP4 DUP3 LT DUP1 ISZERO PUSH2 0x42F JUMPI POP PUSH0 DUP4 DUP2 SLOAD DUP2 LT PUSH2 0x3FC JUMPI PUSH2 0x3FB PUSH2 0x65A JUMP JUMPDEST JUMPDEST SWAP1 PUSH0 MSTORE PUSH1 0x20 PUSH0 KECCAK256 SWAP1 PUSH1 0x2 MUL ADD PUSH0 ADD SLOAD PUSH0 DUP4 DUP2 SLOAD DUP2 LT PUSH2 0x41E JUMPI PUSH2 0x41D PUSH2 0x65A JUMP JUMPDEST JUMPDEST SWAP1 PUSH0 MSTORE PUSH1 0x20 PUSH0 KECCAK256 SWAP1 PUSH1 0x2 MUL ADD PUSH0 ADD SLOAD GT JUMPDEST ISZERO PUSH2 0x438 JUMPI DUP2 SWAP3 POP JUMPDEST DUP4 DUP2 LT DUP1 ISZERO PUSH2 0x488 JUMPI POP PUSH0 DUP4 DUP2 SLOAD DUP2 LT PUSH2 0x455 JUMPI PUSH2 0x454 PUSH2 0x65A JUMP JUMPDEST JUMPDEST SWAP1 PUSH0 MSTORE PUSH1 0x20 PUSH0 KECCAK256 SWAP1 PUSH1 0x2 MUL ADD PUSH0 ADD SLOAD PUSH0 DUP3 DUP2 SLOAD DUP2 LT PUSH2 0x477 JUMPI PUSH2 0x476 PUSH2 0x65A JUMP JUMPDEST JUMPDEST SWAP1 PUSH0 MSTORE PUSH1 0x20 PUSH0 KECCAK256 SWAP1 PUSH1 0x2 MUL ADD PUSH0 ADD SLOAD GT JUMPDEST ISZERO PUSH2 0x491 JUMPI DUP1 SWAP3 POP JUMPDEST DUP5 DUP4 EQ PUSH2 0x537 JUMPI PUSH0 DUP4 DUP2 SLOAD DUP2 LT PUSH2 0x4AB JUMPI PUSH2 0x4AA PUSH2 0x65A JUMP JUMPDEST JUMPDEST SWAP1 PUSH0 MSTORE PUSH1 0x20 PUSH0 KECCAK256 SWAP1 PUSH1 0x2 MUL ADD PUSH0 ADD SLOAD PUSH0 DUP7 DUP2 SLOAD DUP2 LT PUSH2 0x4CD JUMPI PUSH2 0x4CC PUSH2 0x65A JUMP JUMPDEST JUMPDEST SWAP1 PUSH0 MSTORE PUSH1 0x20 PUSH0 KECCAK256 SWAP1 PUSH1 0x2 MUL ADD PUSH0 ADD SLOAD PUSH0 DUP8 DUP2 SLOAD DUP2 LT PUSH2 0x4EF JUMPI PUSH2 0x4EE PUSH2 0x65A JUMP JUMPDEST JUMPDEST SWAP1 PUSH0 MSTORE PUSH1 0x20 PUSH0 KECCAK256 SWAP1 PUSH1 0x2 MUL ADD PUSH0 ADD PUSH0 DUP1 DUP8 DUP2 SLOAD DUP2 LT PUSH2 0x511 JUMPI PUSH2 0x510 PUSH2 0x65A JUMP JUMPDEST JUMPDEST SWAP1 PUSH0 MSTORE PUSH1 0x20 PUSH0 KECCAK256 SWAP1 PUSH1 0x2 MUL ADD PUSH0 ADD PUSH0 DUP5 SWAP2 SWAP1 POP SSTORE DUP4 SWAP2 SWAP1 POP SSTORE POP POP PUSH2 0x536 DUP4 DUP6 PUSH2 0x3A3 JUMP JUMPDEST JUMPDEST POP POP POP POP POP JUMP JUMPDEST PUSH0 DUP1 REVERT JUMPDEST PUSH0 DUP2 SWAP1 POP SWAP2 SWAP1 POP JUMP JUMPDEST PUSH2 0x554 DUP2 PUSH2 0x542 JUMP JUMPDEST DUP2 EQ PUSH2 0x55E JUMPI PUSH0 DUP1 REVERT JUMPDEST POP JUMP JUMPDEST PUSH0 DUP2 CALLDATALOAD SWAP1 POP PUSH2 0x56F DUP2 PUSH2 0x54B JUMP JUMPDEST SWAP3 SWAP2 POP POP JUMP JUMPDEST PUSH0 PUSH1 0x20 DUP3 DUP5 SUB SLT ISZERO PUSH2 0x58A JUMPI PUSH2 0x589 PUSH2 0x53E JUMP JUMPDEST JUMPDEST PUSH0 PUSH2 0x597 DUP5 DUP3 DUP6 ADD PUSH2 0x561 JUMP JUMPDEST SWAP2 POP POP SWAP3 SWAP2 POP POP JUMP JUMPDEST PUSH2 0x5A9 DUP2 PUSH2 0x542 JUMP JUMPDEST DUP3 MSTORE POP POP JUMP JUMPDEST PUSH0 PUSH1 0x40 DUP3 ADD SWAP1 POP PUSH2 0x5C2 PUSH0 DUP4 ADD DUP6 PUSH2 0x5A0 JUMP JUMPDEST PUSH2 0x5CF PUSH1 0x20 DUP4 ADD DUP5 PUSH2 0x5A0 JUMP JUMPDEST SWAP4 SWAP3 POP POP POP JUMP JUMPDEST PUSH0 PUSH1 0x20 DUP3 ADD SWAP1 POP PUSH2 0x5E9 PUSH0 DUP4 ADD DUP5 PUSH2 0x5A0 JUMP JUMPDEST SWAP3 SWAP2 POP POP JUMP JUMPDEST PUSH0 DUP1 PUSH1 0x40 DUP4 DUP6 SUB SLT ISZERO PUSH2 0x605 JUMPI PUSH2 0x604 PUSH2 0x53E JUMP JUMPDEST JUMPDEST PUSH0 PUSH2 0x612 DUP6 DUP3 DUP7 ADD PUSH2 0x561 JUMP JUMPDEST SWAP3 POP POP PUSH1 0x20 PUSH2 0x623 DUP6 DUP3 DUP7 ADD PUSH2 0x561 JUMP JUMPDEST SWAP2 POP POP SWAP3 POP SWAP3 SWAP1 POP JUMP JUMPDEST PUSH32 0x4E487B7100000000000000000000000000000000000000000000000000000000 PUSH0 MSTORE PUSH1 0x31 PUSH1 0x4 MSTORE PUSH1 0x24 PUSH0 REVERT JUMPDEST PUSH32 0x4E487B7100000000000000000000000000000000000000000000000000000000 PUSH0 MSTORE PUSH1 0x32 PUSH1 0x4 MSTORE PUSH1 0x24 PUSH0 REVERT JUMPDEST PUSH32 0x4E487B7100000000000000000000000000000000000000000000000000000000 PUSH0 MSTORE PUSH1 0x11 PUSH1 0x4 MSTORE PUSH1 0x24 PUSH0 REVERT JUMPDEST PUSH0 PUSH2 0x6BE DUP3 PUSH2 0x542 JUMP JUMPDEST SWAP2 POP PUSH2 0x6C9 DUP4 PUSH2 0x542 JUMP JUMPDEST SWAP3 POP DUP3 DUP3 SUB SWAP1 POP DUP2 DUP2 GT ISZERO PUSH2 0x6E1 JUMPI PUSH2 0x6E0 PUSH2 0x687 JUMP JUMPDEST JUMPDEST SWAP3 SWAP2 POP POP JUMP JUMPDEST PUSH0 PUSH2 0x6F1 DUP3 PUSH2 0x542 JUMP JUMPDEST SWAP2 POP PUSH0 DUP3 SUB PUSH2 0x703 JUMPI PUSH2 0x702 PUSH2 0x687 JUMP JUMPDEST JUMPDEST PUSH1 0x1 DUP3 SUB SWAP1 POP SWAP2 SWAP1 POP JUMP JUMPDEST PUSH32 0x4E487B7100000000000000000000000000000000000000000000000000000000 PUSH0 MSTORE PUSH1 0x12 PUSH1 0x4 MSTORE PUSH1 0x24 PUSH0 REVERT JUMPDEST PUSH0 PUSH2 0x745 DUP3 PUSH2 0x542 JUMP JUMPDEST SWAP2 POP PUSH2 0x750 DUP4 PUSH2 0x542 JUMP JUMPDEST SWAP3 POP DUP3 PUSH2 0x760 JUMPI PUSH2 0x75F PUSH2 0x70E JUMP JUMPDEST JUMPDEST DUP3 DUP3 DIV SWAP1 POP SWAP3 SWAP2 POP POP JUMP JUMPDEST PUSH0 PUSH2 0x775 DUP3 PUSH2 0x542 JUMP JUMPDEST SWAP2 POP PUSH2 0x780 DUP4 PUSH2 0x542 JUMP JUMPDEST SWAP3 POP DUP3 DUP3 MUL PUSH2 0x78E DUP2 PUSH2 0x542 JUMP JUMPDEST SWAP2 POP DUP3 DUP3 DIV DUP5 EQ DUP4 ISZERO OR PUSH2 0x7A5 JUMPI PUSH2 0x7A4 PUSH2 0x687 JUMP JUMPDEST JUMPDEST POP SWAP3 SWAP2 POP POP JUMP JUMPDEST PUSH0 PUSH2 0x7B6 DUP3 PUSH2 0x542 JUMP JUMPDEST SWAP2 POP PUSH2 0x7C1 DUP4 PUSH2 0x542 JUMP JUMPDEST SWAP3 POP DUP3 DUP3 ADD SWAP1 POP DUP1 DUP3 GT ISZERO PUSH2 0x7D9 JUMPI PUSH2 0x7D8 PUSH2 0x687 JUMP JUMPDEST JUMPDEST SWAP3 SWAP2 POP POP JUMP INVALID LOG2 PUSH5 0x6970667358 0x22 SLT KECCAK256 SWAP15 MSIZE 0xA9 0x22 PUSH2 0xD49 BLOBBASEFEE DUP12 0xB8 0xEC CALLDATACOPY MCOPY SUB 0xB7 MULMOD SDIV 0xD7 DUP12 0x2D 0x25 0xCB BLOBBASEFEE RETURN SLOAD DUP4 GASPRICE LOG0 MCOPY CALLDATASIZE EXP 0x28 PUSH5 0x736F6C6343 STOP ADDMOD XOR STOP CALLER "
				},
				"gasEstimates": {
					"creation": {
						"codeDepositCost": "413800",
						"executionCost": "447",
						"totalCost": "414247"
					},
					"external": {
						"MaxHeap()": "infinite",
						"fillOrder(uint256,uint256)": "infinite",
						"findMax()": "infinite",
						"findMin()": "infinite",
						"heap(uint256)": "infinite",
						"popMax()": "infinite",
						"sortPrice()": "infinite"
					},
					"internal": {
						"maxHeapify(uint256,uint256)": "infinite"
					}
				},
				"methodIdentifiers": {
					"MaxHeap()": "b13c9ca9",
					"fillOrder(uint256,uint256)": "c37dfc5b",
					"findMax()": "737385ac",
					"findMin()": "5d3b69b6",
					"heap(uint256)": "1c01f292",
					"popMax()": "02a08baf",
					"sortPrice()": "aac12b4b"
				}
			},
			"storageLayout": {
				"storage": [
					{
						"astId": 10,
						"contract": "contracts/HeapOrderBook.sol:MaxHeapOrderBook",
						"label": "heap",
						"offset": 0,
						"slot": "0",
						"type": "t_array(t_struct(Orderbook)6_storage)dyn_storage"
					}
				],
				"types": {
					"t_array(t_struct(Orderbook)6_storage)dyn_storage": {
						"base": "t_struct(Orderbook)6_storage",
						"encoding": "dynamic_array",
						"label": "struct MaxHeapOrderBook.Orderbook[]",
						"numberOfBytes": "32"
					},
					"t_struct(Orderbook)6_storage": {
						"encoding": "inplace",
						"label": "struct MaxHeapOrderBook.Orderbook",
						"members": [
							{
								"astId": 3,
								"contract": "contracts/HeapOrderBook.sol:MaxHeapOrderBook",
								"label": "price",
								"offset": 0,
								"slot": "0",
								"type": "t_uint256"
							},
							{
								"astId": 5,
								"contract": "contracts/HeapOrderBook.sol:MaxHeapOrderBook",
								"label": "amount",
								"offset": 0,
								"slot": "1",
								"type": "t_uint256"
							}
						],
						"numberOfBytes": "64"
					},
					"t_uint256": {
						"encoding": "inplace",
						"label": "uint256",
						"numberOfBytes": "32"
					}
				}
			},
			"userdoc": {
				"kind": "user",
				"methods": {},
				"version": 1
			}
		}
	}
}