{
	"data": {
		"bytecode": {
			"linkReferences": {},
			"object": "608060405234801561000f575f80fd5b506108158061001d5f395ff3fe608060405234801561000f575f80fd5b506004361061007b575f3560e01c8063737385ac11610059578063737385ac146100d8578063aac12b4b146100f6578063b13c9ca914610100578063c37dfc5b1461010a5761007b565b806302a08baf1461007f5780631c01f292146100895780635d3b69b6146100ba575b5f80fd5b610087610126565b005b6100a3600480360381019061009e9190610575565b610165565b6040516100b19291906105af565b60405180910390f35b6100c2610193565b6040516100cf91906105d6565b60405180910390f35b6100e06101c3565b6040516100ed91906105d6565b60405180910390f35b6100fe610203565b005b6101086102ef565b005b610124600480360381019061011f91906105ef565b61034a565b005b61012e610203565b5f80548061013f5761013e61062d565b5b600190038181905f5260205f2090600202015f8082015f9055600182015f905550509055565b5f8181548110610173575f80fd5b905f5260205f2090600202015f91509050805f0154908060010154905082565b5f61019c610203565b5f80815481106101af576101ae61065a565b5b905f5260205f2090600202015f0154905090565b5f6101cc610203565b5f60015f805490506101de91906106b4565b815481106101ef576101ee61065a565b5b905f5260205f2090600202015f0154905090565b61020b6102ef565b5f808054905090505f60018261022191906106b4565b90505b5f8111156102eb575f818154811061023f5761023e61065a565b5b905f5260205f2090600202015f01545f80815481106102615761026061065a565b5b905f5260205f2090600202015f01545f80815481106102835761028261065a565b5b905f5260205f2090600202015f015f8085815481106102a5576102a461065a565b5b905f5260205f2090600202015f015f84919050558391905055505081806102cb906106e7565b9250506102d85f836103a3565b80806102e3906106e7565b915050610224565b5050565b5f600160025f80549050610303919061073b565b61030d91906106b4565b90505b5f81111561033957610326815f805490506103a3565b8080610331906106e7565b915050610310565b506103485f80805490506103a3565b565b5f60405180604001604052808481526020018381525090505f81908060018154018082558091505060019003905f5260205f2090600202015f909190919091505f820151815f0155602082015181600101555050505050565b5f8290505f60018460026103b7919061076b565b6103c191906107ac565b90505f60028560026103d3919061076b565b6103dd91906107ac565b9050838210801561042f57505f83815481106103fc576103fb61065a565b5b905f5260205f2090600202015f01545f838154811061041e5761041d61065a565b5b905f5260205f2090600202015f0154115b15610438578192505b838110801561048857505f83815481106104555761045461065a565b5b905f5260205f2090600202015f01545f82815481106104775761047661065a565b5b905f5260205f2090600202015f0154115b15610491578092505b848314610537575f83815481106104ab576104aa61065a565b5b905f5260205f2090600202015f01545f86815481106104cd576104cc61065a565b5b905f5260205f2090600202015f01545f87815481106104ef576104ee61065a565b5b905f5260205f2090600202015f015f8087815481106105115761051061065a565b5b905f5260205f2090600202015f015f84919050558391905055505061053683856103a3565b5b5050505050565b5f80fd5b5f819050919050565b61055481610542565b811461055e575f80fd5b50565b5f8135905061056f8161054b565b92915050565b5f6020828403121561058a5761058961053e565b5b5f61059784828501610561565b91505092915050565b6105a981610542565b82525050565b5f6040820190506105c25f8301856105a0565b6105cf60208301846105a0565b9392505050565b5f6020820190506105e95f8301846105a0565b92915050565b5f80604083850312156106055761060461053e565b5b5f61061285828601610561565b925050602061062385828601610561565b9150509250929050565b7f4e487b71000000000000000000000000000000000000000000000000000000005f52603160045260245ffd5b7f4e487b71000000000000000000000000000000000000000000000000000000005f52603260045260245ffd5b7f4e487b71000000000000000000000000000000000000000000000000000000005f52601160045260245ffd5b5f6106be82610542565b91506106c983610542565b92508282039050818111156106e1576106e0610687565b5b92915050565b5f6106f182610542565b91505f820361070357610702610687565b5b600182039050919050565b7f4e487b71000000000000000000000000000000000000000000000000000000005f52601260045260245ffd5b5f61074582610542565b915061075083610542565b9250826107605761075f61070e565b5b828204905092915050565b5f61077582610542565b915061078083610542565b925082820261078e81610542565b915082820484148315176107a5576107a4610687565b5b5092915050565b5f6107b682610542565b91506107c183610542565b92508282019050808211156107d9576107d8610687565b5b9291505056fea26469706673582212209e59a922610d494a8bb8ec375e03b70905d78b2d25cb4af354833aa05e360a2864736f6c63430008180033",
			"opcodes": "PUSH1 0x80 PUSH1 0x40 MSTORE CALLVALUE DUP1 ISZERO PUSH2 0xF JUMPI PUSH0 DUP1 REVERT JUMPDEST POP PUSH2 0x815 DUP1 PUSH2 0x1D PUSH0 CODECOPY PUSH0 RETURN INVALID PUSH1 0x80 PUSH1 0x40 MSTORE CALLVALUE DUP1 ISZERO PUSH2 0xF JUMPI PUSH0 DUP1 REVERT JUMPDEST POP PUSH1 0x4 CALLDATASIZE LT PUSH2 0x7B JUMPI PUSH0 CALLDATALOAD PUSH1 0xE0 SHR DUP1 PUSH4 0x737385AC GT PUSH2 0x59 JUMPI DUP1 PUSH4 0x737385AC EQ PUSH2 0xD8 JUMPI DUP1 PUSH4 0xAAC12B4B EQ PUSH2 0xF6 JUMPI DUP1 PUSH4 0xB13C9CA9 EQ PUSH2 0x100 JUMPI DUP1 PUSH4 0xC37DFC5B EQ PUSH2 0x10A JUMPI PUSH2 0x7B JUMP JUMPDEST DUP1 PUSH4 0x2A08BAF EQ PUSH2 0x7F JUMPI DUP1 PUSH4 0x1C01F292 EQ PUSH2 0x89 JUMPI DUP1 PUSH4 0x5D3B69B6 EQ PUSH2 0xBA JUMPI JUMPDEST PUSH0 DUP1 REVERT JUMPDEST PUSH2 0x87 PUSH2 0x126 JUMP JUMPDEST STOP JUMPDEST PUSH2 0xA3 PUSH1 0x4 DUP1 CALLDATASIZE SUB DUP2 ADD SWAP1 PUSH2 0x9E SWAP2 SWAP1 PUSH2 0x575 JUMP JUMPDEST PUSH2 0x165 JUMP JUMPDEST PUSH1 0x40 MLOAD PUSH2 0xB1 SWAP3 SWAP2 SWAP1 PUSH2 0x5AF JUMP JUMPDEST PUSH1 0x40 MLOAD DUP1 SWAP2 SUB SWAP1 RETURN JUMPDEST PUSH2 0xC2 PUSH2 0x193 JUMP JUMPDEST PUSH1 0x40 MLOAD PUSH2 0xCF SWAP2 SWAP1 PUSH2 0x5D6 JUMP JUMPDEST PUSH1 0x40 MLOAD DUP1 SWAP2 SUB SWAP1 RETURN JUMPDEST PUSH2 0xE0 PUSH2 0x1C3 JUMP JUMPDEST PUSH1 0x40 MLOAD PUSH2 0xED SWAP2 SWAP1 PUSH2 0x5D6 JUMP JUMPDEST PUSH1 0x40 MLOAD DUP1 SWAP2 SUB SWAP1 RETURN JUMPDEST PUSH2 0xFE PUSH2 0x203 JUMP JUMPDEST STOP JUMPDEST PUSH2 0x108 PUSH2 0x2EF JUMP JUMPDEST STOP JUMPDEST PUSH2 0x124 PUSH1 0x4 DUP1 CALLDATASIZE SUB DUP2 ADD SWAP1 PUSH2 0x11F SWAP2 SWAP1 PUSH2 0x5EF JUMP JUMPDEST PUSH2 0x34A JUMP JUMPDEST STOP JUMPDEST PUSH2 0x12E PUSH2 0x203 JUMP JUMPDEST PUSH0 DUP1 SLOAD DUP1 PUSH2 0x13F JUMPI PUSH2 0x13E PUSH2 0x62D JUMP JUMPDEST JUMPDEST PUSH1 0x1 SWAP1 SUB DUP2 DUP2 SWAP1 PUSH0 MSTORE PUSH1 0x20 PUSH0 KECCAK256 SWAP1 PUSH1 0x2 MUL ADD PUSH0 DUP1 DUP3 ADD PUSH0 SWAP1 SSTORE PUSH1 0x1 DUP3 ADD PUSH0 SWAP1 SSTORE POP POP SWAP1 SSTORE JUMP JUMPDEST PUSH0 DUP2 DUP2 SLOAD DUP2 LT PUSH2 0x173 JUMPI PUSH0 DUP1 REVERT JUMPDEST SWAP1 PUSH0 MSTORE PUSH1 0x20 PUSH0 KECCAK256 SWAP1 PUSH1 0x2 MUL ADD PUSH0 SWAP2 POP SWAP1 POP DUP1 PUSH0 ADD SLOAD SWAP1 DUP1 PUSH1 0x1 ADD SLOAD SWAP1 POP DUP3 JUMP JUMPDEST PUSH0 PUSH2 0x19C PUSH2 0x203 JUMP JUMPDEST PUSH0 DUP1 DUP2 SLOAD DUP2 LT PUSH2 0x1AF JUMPI PUSH2 0x1AE PUSH2 0x65A JUMP JUMPDEST JUMPDEST SWAP1 PUSH0 MSTORE PUSH1 0x20 PUSH0 KECCAK256 SWAP1 PUSH1 0x2 MUL ADD PUSH0 ADD SLOAD SWAP1 POP SWAP1 JUMP JUMPDEST PUSH0 PUSH2 0x1CC PUSH2 0x203 JUMP JUMPDEST PUSH0 PUSH1 0x1 PUSH0 DUP1 SLOAD SWAP1 POP PUSH2 0x1DE SWAP2 SWAP1 PUSH2 0x6B4 JUMP JUMPDEST DUP2 SLOAD DUP2 LT PUSH2 0x1EF JUMPI PUSH2 0x1EE PUSH2 0x65A JUMP JUMPDEST JUMPDEST SWAP1 PUSH0 MSTORE PUSH1 0x20 PUSH0 KECCAK256 SWAP1 PUSH1 0x2 MUL ADD PUSH0 ADD SLOAD SWAP1 POP SWAP1 JUMP JUMPDEST PUSH2 0x20B PUSH2 0x2EF JUMP JUMPDEST PUSH0 DUP1 DUP1 SLOAD SWAP1 POP SWAP1 POP PUSH0 PUSH1 0x1 DUP3 PUSH2 0x221 SWAP2 SWAP1 PUSH2 0x6B4 JUMP JUMPDEST SWAP1 POP JUMPDEST PUSH0 DUP2 GT ISZERO PUSH2 0x2EB JUMPI PUSH0 DUP2 DUP2 SLOAD DUP2 LT PUSH2 0x23F JUMPI PUSH2 0x23E PUSH2 0x65A JUMP JUMPDEST JUMPDEST SWAP1 PUSH0 MSTORE PUSH1 0x20 PUSH0 KECCAK256 SWAP1 PUSH1 0x2 MUL ADD PUSH0 ADD SLOAD PUSH0 DUP1 DUP2 SLOAD DUP2 LT PUSH2 0x261 JUMPI PUSH2 0x260 PUSH2 0x65A JUMP JUMPDEST JUMPDEST SWAP1 PUSH0 MSTORE PUSH1 0x20 PUSH0 KECCAK256 SWAP1 PUSH1 0x2 MUL ADD PUSH0 ADD SLOAD PUSH0 DUP1 DUP2 SLOAD DUP2 LT PUSH2 0x283 JUMPI PUSH2 0x282 PUSH2 0x65A JUMP JUMPDEST JUMPDEST SWAP1 PUSH0 MSTORE PUSH1 0x20 PUSH0 KECCAK256 SWAP1 PUSH1 0x2 MUL ADD PUSH0 ADD PUSH0 DUP1 DUP6 DUP2 SLOAD DUP2 LT PUSH2 0x2A5 JUMPI PUSH2 0x2A4 PUSH2 0x65A JUMP JUMPDEST JUMPDEST SWAP1 PUSH0 MSTORE PUSH1 0x20 PUSH0 KECCAK256 SWAP1 PUSH1 0x2 MUL ADD PUSH0 ADD PUSH0 DUP5 SWAP2 SWAP1 POP SSTORE DUP4 SWAP2 SWAP1 POP SSTORE POP POP DUP2 DUP1 PUSH2 0x2CB SWAP1 PUSH2 0x6E7 JUMP JUMPDEST SWAP3 POP POP PUSH2 0x2D8 PUSH0 DUP4 PUSH2 0x3A3 JUMP JUMPDEST DUP1 DUP1 PUSH2 0x2E3 SWAP1 PUSH2 0x6E7 JUMP JUMPDEST SWAP2 POP POP PUSH2 0x224 JUMP JUMPDEST POP POP JUMP JUMPDEST PUSH0 PUSH1 0x1 PUSH1 0x2 PUSH0 DUP1 SLOAD SWAP1 POP PUSH2 0x303 SWAP2 SWAP1 PUSH2 0x73B JUMP JUMPDEST PUSH2 0x30D SWAP2 SWAP1 PUSH2 0x6B4 JUMP JUMPDEST SWAP1 POP JUMPDEST PUSH0 DUP2 GT ISZERO PUSH2 0x339 JUMPI PUSH2 0x326 DUP2 PUSH0 DUP1 SLOAD SWAP1 POP PUSH2 0x3A3 JUMP JUMPDEST DUP1 DUP1 PUSH2 0x331 SWAP1 PUSH2 0x6E7 JUMP JUMPDEST SWAP2 POP POP PUSH2 0x310 JUMP JUMPDEST POP PUSH2 0x348 PUSH0 DUP1 DUP1 SLOAD SWAP1 POP PUSH2 0x3A3 JUMP JUMPDEST JUMP JUMPDEST PUSH0 PUSH1 0x40 MLOAD DUP1 PUSH1 0x40 ADD PUSH1 0x40 MSTORE DUP1 DUP5 DUP2 MSTORE PUSH1 0x20 ADD DUP4 DUP2 MSTORE POP SWAP1 POP PUSH0 DUP2 SWAP1 DUP1 PUSH1 0x1 DUP2 SLOAD ADD DUP1 DUP3 SSTORE DUP1 SWAP2 POP POP PUSH1 0x1 SWAP1 SUB SWAP1 PUSH0 MSTORE PUSH1 0x20 PUSH0 KECCAK256 SWAP1 PUSH1 0x2 MUL ADD PUSH0 SWAP1 SWAP2 SWAP1 SWAP2 SWAP1 SWAP2 POP PUSH0 DUP3 ADD MLOAD DUP2 PUSH0 ADD SSTORE PUSH1 0x20 DUP3 ADD MLOAD DUP2 PUSH1 0x1 ADD SSTORE POP POP POP POP POP JUMP JUMPDEST PUSH0 DUP3 SWAP1 POP PUSH0 PUSH1 0x1 DUP5 PUSH1 0x2 PUSH2 0x3B7 SWAP2 SWAP1 PUSH2 0x76B JUMP JUMPDEST PUSH2 0x3C1 SWAP2 SWAP1 PUSH2 0x7AC JUMP JUMPDEST SWAP1 POP PUSH0 PUSH1 0x2 DUP6 PUSH1 0x2 PUSH2 0x3D3 SWAP2 SWAP1 PUSH2 0x76B JUMP JUMPDEST PUSH2 0x3DD SWAP2 SWAP1 PUSH2 0x7AC JUMP JUMPDEST SWAP1 POP DUP4 DUP3 LT DUP1 ISZERO PUSH2 0x42F JUMPI POP PUSH0 DUP4 DUP2 SLOAD DUP2 LT PUSH2 0x3FC JUMPI PUSH2 0x3FB PUSH2 0x65A JUMP JUMPDEST JUMPDEST SWAP1 PUSH0 MSTORE PUSH1 0x20 PUSH0 KECCAK256 SWAP1 PUSH1 0x2 MUL ADD PUSH0 ADD SLOAD PUSH0 DUP4 DUP2 SLOAD DUP2 LT PUSH2 0x41E JUMPI PUSH2 0x41D PUSH2 0x65A JUMP JUMPDEST JUMPDEST SWAP1 PUSH0 MSTORE PUSH1 0x20 PUSH0 KECCAK256 SWAP1 PUSH1 0x2 MUL ADD PUSH0 ADD SLOAD GT JUMPDEST ISZERO PUSH2 0x438 JUMPI DUP2 SWAP3 POP JUMPDEST DUP4 DUP2 LT DUP1 ISZERO PUSH2 0x488 JUMPI POP PUSH0 DUP4 DUP2 SLOAD DUP2 LT PUSH2 0x455 JUMPI PUSH2 0x454 PUSH2 0x65A JUMP JUMPDEST JUMPDEST SWAP1 PUSH0 MSTORE PUSH1 0x20 PUSH0 KECCAK256 SWAP1 PUSH1 0x2 MUL ADD PUSH0 ADD SLOAD PUSH0 DUP3 DUP2 SLOAD DUP2 LT PUSH2 0x477 JUMPI PUSH2 0x476 PUSH2 0x65A JUMP JUMPDEST JUMPDEST SWAP1 PUSH0 MSTORE PUSH1 0x20 PUSH0 KECCAK256 SWAP1 PUSH1 0x2 MUL ADD PUSH0 ADD SLOAD GT JUMPDEST ISZERO PUSH2 0x491 JUMPI DUP1 SWAP3 POP JUMPDEST DUP5 DUP4 EQ PUSH2 0x537 JUMPI PUSH0 DUP4 DUP2 SLOAD DUP2 LT PUSH2 0x4AB JUMPI PUSH2 0x4AA PUSH2 0x65A JUMP JUMPDEST JUMPDEST SWAP1 PUSH0 MSTORE PUSH1 0x20 PUSH0 KECCAK256 SWAP1 PUSH1 0x2 MUL ADD PUSH0 ADD SLOAD PUSH0 DUP7 DUP2 SLOAD DUP2 LT PUSH2 0x4CD JUMPI PUSH2 0x4CC PUSH2 0x65A JUMP JUMPDEST JUMPDEST SWAP1 PUSH0 MSTORE PUSH1 0x20 PUSH0 KECCAK256 SWAP1 PUSH1 0x2 MUL ADD PUSH0 ADD SLOAD PUSH0 DUP8 DUP2 SLOAD DUP2 LT PUSH2 0x4EF JUMPI PUSH2 0x4EE PUSH2 0x65A JUMP JUMPDEST JUMPDEST SWAP1 PUSH0 MSTORE PUSH1 0x20 PUSH0 KECCAK256 SWAP1 PUSH1 0x2 MUL ADD PUSH0 ADD PUSH0 DUP1 DUP8 DUP2 SLOAD DUP2 LT PUSH2 0x511 JUMPI PUSH2 0x510 PUSH2 0x65A JUMP JUMPDEST JUMPDEST SWAP1 PUSH0 MSTORE PUSH1 0x20 PUSH0 KECCAK256 SWAP1 PUSH1 0x2 MUL ADD PUSH0 ADD PUSH0 DUP5 SWAP2 SWAP1 POP SSTORE DUP4 SWAP2 SWAP1 POP SSTORE POP POP PUSH2 0x536 DUP4 DUP6 PUSH2 0x3A3 JUMP JUMPDEST JUMPDEST POP POP POP POP POP JUMP JUMPDEST PUSH0 DUP1 REVERT JUMPDEST PUSH0 DUP2 SWAP1 POP SWAP2 SWAP1 POP JUMP JUMPDEST PUSH2 0x554 DUP2 PUSH2 0x542 JUMP JUMPDEST DUP2 EQ PUSH2 0x55E JUMPI PUSH0 DUP1 REVERT JUMPDEST POP JUMP JUMPDEST PUSH0 DUP2 CALLDATALOAD SWAP1 POP PUSH2 0x56F DUP2 PUSH2 0x54B JUMP JUMPDEST SWAP3 SWAP2 POP POP JUMP JUMPDEST PUSH0 PUSH1 0x20 DUP3 DUP5 SUB SLT ISZERO PUSH2 0x58A JUMPI PUSH2 0x589 PUSH2 0x53E JUMP JUMPDEST JUMPDEST PUSH0 PUSH2 0x597 DUP5 DUP3 DUP6 ADD PUSH2 0x561 JUMP JUMPDEST SWAP2 POP POP SWAP3 SWAP2 POP POP JUMP JUMPDEST PUSH2 0x5A9 DUP2 PUSH2 0x542 JUMP JUMPDEST DUP3 MSTORE POP POP JUMP JUMPDEST PUSH0 PUSH1 0x40 DUP3 ADD SWAP1 POP PUSH2 0x5C2 PUSH0 DUP4 ADD DUP6 PUSH2 0x5A0 JUMP JUMPDEST PUSH2 0x5CF PUSH1 0x20 DUP4 ADD DUP5 PUSH2 0x5A0 JUMP JUMPDEST SWAP4 SWAP3 POP POP POP JUMP JUMPDEST PUSH0 PUSH1 0x20 DUP3 ADD SWAP1 POP PUSH2 0x5E9 PUSH0 DUP4 ADD DUP5 PUSH2 0x5A0 JUMP JUMPDEST SWAP3 SWAP2 POP POP JUMP JUMPDEST PUSH0 DUP1 PUSH1 0x40 DUP4 DUP6 SUB SLT ISZERO PUSH2 0x605 JUMPI PUSH2 0x604 PUSH2 0x53E JUMP JUMPDEST JUMPDEST PUSH0 PUSH2 0x612 DUP6 DUP3 DUP7 ADD PUSH2 0x561 JUMP JUMPDEST SWAP3 POP POP PUSH1 0x20 PUSH2 0x623 DUP6 DUP3 DUP7 ADD PUSH2 0x561 JUMP JUMPDEST SWAP2 POP POP SWAP3 POP SWAP3 SWAP1 POP JUMP JUMPDEST PUSH32 0x4E487B7100000000000000000000000000000000000000000000000000000000 PUSH0 MSTORE PUSH1 0x31 PUSH1 0x4 MSTORE PUSH1 0x24 PUSH0 REVERT JUMPDEST PUSH32 0x4E487B7100000000000000000000000000000000000000000000000000000000 PUSH0 MSTORE PUSH1 0x32 PUSH1 0x4 MSTORE PUSH1 0x24 PUSH0 REVERT JUMPDEST PUSH32 0x4E487B7100000000000000000000000000000000000000000000000000000000 PUSH0 MSTORE PUSH1 0x11 PUSH1 0x4 MSTORE PUSH1 0x24 PUSH0 REVERT JUMPDEST PUSH0 PUSH2 0x6BE DUP3 PUSH2 0x542 JUMP JUMPDEST SWAP2 POP PUSH2 0x6C9 DUP4 PUSH2 0x542 JUMP JUMPDEST SWAP3 POP DUP3 DUP3 SUB SWAP1 POP DUP2 DUP2 GT ISZERO PUSH2 0x6E1 JUMPI PUSH2 0x6E0 PUSH2 0x687 JUMP JUMPDEST JUMPDEST SWAP3 SWAP2 POP POP JUMP JUMPDEST PUSH0 PUSH2 0x6F1 DUP3 PUSH2 0x542 JUMP JUMPDEST SWAP2 POP PUSH0 DUP3 SUB PUSH2 0x703 JUMPI PUSH2 0x702 PUSH2 0x687 JUMP JUMPDEST JUMPDEST PUSH1 0x1 DUP3 SUB SWAP1 POP SWAP2 SWAP1 POP JUMP JUMPDEST PUSH32 0x4E487B7100000000000000000000000000000000000000000000000000000000 PUSH0 MSTORE PUSH1 0x12 PUSH1 0x4 MSTORE PUSH1 0x24 PUSH0 REVERT JUMPDEST PUSH0 PUSH2 0x745 DUP3 PUSH2 0x542 JUMP JUMPDEST SWAP2 POP PUSH2 0x750 DUP4 PUSH2 0x542 JUMP JUMPDEST SWAP3 POP DUP3 PUSH2 0x760 JUMPI PUSH2 0x75F PUSH2 0x70E JUMP JUMPDEST JUMPDEST DUP3 DUP3 DIV SWAP1 POP SWAP3 SWAP2 POP POP JUMP JUMPDEST PUSH0 PUSH2 0x775 DUP3 PUSH2 0x542 JUMP JUMPDEST SWAP2 POP PUSH2 0x780 DUP4 PUSH2 0x542 JUMP JUMPDEST SWAP3 POP DUP3 DUP3 MUL PUSH2 0x78E DUP2 PUSH2 0x542 JUMP JUMPDEST SWAP2 POP DUP3 DUP3 DIV DUP5 EQ DUP4 ISZERO OR PUSH2 0x7A5 JUMPI PUSH2 0x7A4 PUSH2 0x687 JUMP JUMPDEST JUMPDEST POP SWAP3 SWAP2 POP POP JUMP JUMPDEST PUSH0 PUSH2 0x7B6 DUP3 PUSH2 0x542 JUMP JUMPDEST SWAP2 POP PUSH2 0x7C1 DUP4 PUSH2 0x542 JUMP JUMPDEST SWAP3 POP DUP3 DUP3 ADD SWAP1 POP DUP1 DUP3 GT ISZERO PUSH2 0x7D9 JUMPI PUSH2 0x7D8 PUSH2 0x687 JUMP JUMPDEST JUMPDEST SWAP3 SWAP2 POP POP JUMP INVALID LOG2 PUSH5 0x6970667358 0x22 SLT KECCAK256 SWAP15 MSIZE 0xA9 0x22 PUSH2 0xD49 BLOBBASEFEE DUP12 0xB8 0xEC CALLDATACOPY MCOPY SUB 0xB7 MULMOD SDIV 0xD7 DUP12 0x2D 0x25 0xCB BLOBBASEFEE RETURN SLOAD DUP4 GASPRICE LOG0 MCOPY CALLDATASIZE EXP 0x28 PUSH5 0x736F6C6343 STOP ADDMOD XOR STOP CALLER "
		},
		"gasEstimates": {
			"creation": {
				"codeDepositCost": "413800",
				"executionCost": "447",
				"totalCost": "414247"
			},
			"external": {
				"MaxHeap()": "infinite",
				"fillOrder(uint256,uint256)": "infinite",
				"findMax()": "infinite",
				"findMin()": "infinite",
				"heap(uint256)": "infinite",
				"popMax()": "infinite",
				"sortPrice()": "infinite"
			},
			"internal": {
				"maxHeapify(uint256,uint256)": "infinite"
			}
		},
		"methodIdentifiers": {
			"MaxHeap()": "b13c9ca9",
			"fillOrder(uint256,uint256)": "c37dfc5b",
			"findMax()": "737385ac",
			"findMin()": "5d3b69b6",
			"heap(uint256)": "1c01f292",
			"popMax()": "02a08baf",
			"sortPrice()": "aac12b4b"
		}
	},
	"abi": [
		{
			"inputs": [],
			"name": "MaxHeap",
			"outputs": [],
			"stateMutability": "nonpayable",
			"type": "function"
		},
		{
			"inputs": [
				{
					"internalType": "uint256",
					"name": "_price",
					"type": "uint256"
				},
				{
					"internalType": "uint256",
					"name": "_amount",
					"type": "uint256"
				}
			],
			"name": "fillOrder",
			"outputs": [],
			"stateMutability": "nonpayable",
			"type": "function"
		},
		{
			"inputs": [],
			"name": "findMax",
			"outputs": [
				{
					"internalType": "uint256",
					"name": "",
					"type": "uint256"
				}
			],
			"stateMutability": "nonpayable",
			"type": "function"
		},
		{
			"inputs": [],
			"name": "findMin",
			"outputs": [
				{
					"internalType": "uint256",
					"name": "",
					"type": "uint256"
				}
			],
			"stateMutability": "nonpayable",
			"type": "function"
		},
		{
			"inputs": [
				{
					"internalType": "uint256",
					"name": "",
					"type": "uint256"
				}
			],
			"name": "heap",
			"outputs": [
				{
					"internalType": "uint256",
					"name": "price",
					"type": "uint256"
				},
				{
					"internalType": "uint256",
					"name": "amount",
					"type": "uint256"
				}
			],
			"stateMutability": "view",
			"type": "function"
		},
		{
			"inputs": [],
			"name": "popMax",
			"outputs": [],
			"stateMutability": "nonpayable",
			"type": "function"
		},
		{
			"inputs": [],
			"name": "sortPrice",
			"outputs": [],
			"stateMutability": "nonpayable",
			"type": "function"
		}
	]
}